:100000000C94BA000C94E2000C94E2000C94E20010
:100010000C94E2000C94E2000C94E2000C94E200D8
:100020000C94E2000C94E2000C94E2000C94E200C8
:100030000C94E2000C94E2000C94E2000C94E200B8
:100040000C948D140C94E2000C948A110C94BC1145
:100050000C94E2000C94E2000C94E2000C94E20098
:100060000C94D9090C94E200C50C5E0CC90C610C0F
:10007000640C670C6B0C6E0C710C740C770C7A0CA6
:100080007D0C800C830C870C8A0C8D0CCD0C9B0C8A
:100090009E0CC30CA10CC30CA50CA80CAC0CC30C7F
:1000A000C30CAF0CB30CB60CBA0CBD0CC30CC00C1B
:1000B00008000000BE922449123EABAAAA2ABECD77
:1000C000CCCC4C3E00000080BEABAAAAAA3E0000E9
:1000D0000000BF000000803F0000000000084178E1
:1000E000D3BB4387D1133D190E3CC3BD4282AD2B18
:1000F0003E68EC8276BED98FE1A93E4C80EFFFBE10
:1001000001C4FF7F3F000000000000000009000361
:1001100002000004050800000000000000000000CC
:100120000001020408102040800102040810200190
:100130000204081020408040040404040404040461
:10014000020202020202030303030303020203008A
:1001500000000023002600290000000000250028E0
:10016000002B0000000000240027002A0000660683
:10017000F008EC1111241FBECFEFD8E0DEBFCDBFD9
:1001800014E0A0E0B1E0E2E5F4E302C005900D92D6
:10019000A23EB107D9F726E0A2EEB4E001C01D925D
:1001A000AC38B207E1F710E0CAEBD0E004C0219709
:1001B000FE010E94F319C73BD107C9F70E947E14C4
:1001C0000C94271A0C940000CF93DF9361E084E035
:1001D0000E94311661E084E00E946D1661E088E0C3
:1001E0000E94311686EE95E00E94611262E071E095
:1001F00086EE95E00E94651280918100887F816083
:100200008093810061E086E00E94311661E08EE01B
:100210000E94311661E082E00E94311661E089E0BF
:100220000E94311660E070E089E00E94A91561E04B
:100230008AE00E94311660E070E08AE00E94A91511
:1002400061E083E00E94311660E083E00E946D1659
:1002500061E085E00E94311660E070E085E00E9478
:10026000A91526E040E052EC61E070E086EE95E0F2
:100270000E942A110E94D7146093EA047093EB0441
:100280008093EC049093ED0488E095E00E9454077D
:1002900088E095E00E94140764E670E080E090E05A
:1002A0000E94081541E060E187E195E00E943E0F61
:1002B000882369F06AE071E086EE95E00E9465129D
:1002C00063E271E086EE95E00E946512E5CF6DE392
:1002D00071E086EE95E00E94651261E082E00E9486
:1002E0006D16C0E0D0E0BE0185E00E94A9156AE06D
:1002F00070E080E090E00E9408152596CF3FD10580
:1003000091F7CFEFD0E0BE0185E00E94A9156AE029
:1003100070E080E090E00E9408152597A1F7DF913A
:10032000CF9108958F929F92AF92BF92CF92DF921A
:10033000EF92FF924B015C0186EE95E00E94611204
:1003400065E571E086EE95E00E946512A5019401D5
:1003500060E070EC8FE794E40E94C6169B01AC014C
:1003600060E070EC8FE794E40E94381720E030E002
:1003700040E85FE30E94C6169B01AC0160E070E4B8
:100380008CE196E40E94381720E030E44CE156E41A
:100390000E9438170E949F1820E030E443E555E49E
:1003A0000E9438172FE03FEC4BE55BE30E94C71635
:1003B0009B01AC0160E070E080E89FE30E94381789
:1003C00023E333E948E853E40E94C6166B017C013D
:1003D0006BE671E086EE95E00E94651263E871E0DD
:1003E00086EE95E00E9458122AE030E0B501A401A3
:1003F00086EE95E00E94281460E971E086EE95E0B3
:100400000E94581222E030E0B701A60186EE95E086
:100410000E942A14C701B601FF90EF90DF90CF90A1
:10042000BF90AF909F908F900895CF93DF9386EE0B
:1004300095E00E94611266EA71E086EE95E00E9406
:10044000651260E070E089E00E94A91560E070E04C
:100450008AE00E94A91560E083E00E946D1660E0CA
:1004600070E085E00E94A91568EE73E080E090E0FE
:100470000E94081564EB71E086EE95E00E9465121B
:100480006FEF70E089E00E94A91568EB7BE080E0E7
:1004900090E00E94081560E070E089E00E94A915D4
:1004A0006BEC71E086EE95E00E946512C0E0D0E052
:1004B000BE018AE00E94A91564E170E080E090E04E
:1004C0000E9408152596CF3FD10591F768EB7BE098
:1004D00080E090E00E94081560E070E08AE00E94F1
:1004E000A91562EE71E086EE95E00E94651261E06A
:1004F00083E00E946D1668EB7BE080E090E00E9454
:10050000081560E083E00E946D1668EF71E086EEEA
:1005100095E00E94651261E085E00E946D1668EB2F
:100520007BE080E090E00E94081560E085E00E949A
:100530006D166DE072E086EE95E00E9465126BE14B
:1005400072E086EE95E00E9458128FE00E948815B6
:10055000BC01990F880B990B0E94E2170E9492012F
:10056000AB01BC0122E030E086EE95E00E942A1447
:1005700060E372E086EE95E00E94581280E10E94EE
:100580008815BC01990F880B990B0E94E2170E94F5
:100590009201AB01BC0122E030E086EE95E00E94C2
:1005A0002A1465E472E086EE95E00E94651263E528
:1005B00072E086EE95E00E94651261E08EE00E9496
:1005C0006D1668EE73E080E090E00E94081560E030
:1005D0008EE00E946D1668E572E086EE95E00E945E
:1005E000651261E082E00E946D1668EE73E080E0C3
:1005F00090E00E94081560E082E0DF91CF910C94BA
:100600006D164F925F926F927F928F929F92AF92F0
:10061000BF92CF92DF92EF92FF920F931F93CF93EF
:10062000DF9386EE95E00E9461126DE572E086EE42
:1006300095E00E946512CFEED4E08E01F801619141
:1006400071918F014AE050E086EE95E00E943B13E5
:10065000F5E005301F0791F705EF14E0C12CD12C10
:10066000E12CF12C69917991072E000C880B990BE4
:100670000E94E2174B015C019601A7010E949218AB
:10068000181614F4640175010C171D0759F720E0C2
:1006900030E040E251E4B601C7010E9438172B0157
:1006A0003C0163E772E086EE95E00E94581222E07A
:1006B00030E0B301A20186EE95E00E942A148091F9
:1006C0000001882309F4E6C080910605882309F417
:1006D000E1C08091050581112AC06DE772E086EEC8
:1006E00095E00E946512C0E0D0E0BE018AE00E9461
:1006F000A91564E170E080E090E00E94081525965D
:10070000CF3FD10591F781E080930505DF91CF912F
:100710001F910F91FF90EF90DF90CF90BF90AF901F
:100720009F908F907F906F905F904F900895C3013E
:10073000B2010E94AA171F921F921F922FEF2F93B0
:10074000A12CB12C650113E2E12EF12C00E010E0A8
:1007500027E130E040E050E00E943C148AE00E9433
:10076000A9150F900F900F900F9020E030E040EA15
:1007700050E4C301B2010E949218181644F464E9CF
:1007800072E086EE95E00E94581261E010C020E011
:1007900030E0A901C301B2010E94331787FF0AC0EC
:1007A0006DE972E086EE95E00E94581260E083E009
:1007B0000E946D1680E10E948815EC0109E010E0AE
:1007C00080E10E948815C80FD91F01501109C1F797
:1007D000CE0169E070E00E949E19072E000C880B84
:1007E000990B0E94E2170E9492016B017C0122E0AA
:1007F00030E0AB01BC0186EE95E00E942A14C701EF
:10080000B6010E94AA171F921F921F922FEF2F93DB
:10081000A12CB12C650112E3E12EF12C00E010E0D7
:1008200029E130E040E050E00E943C146B017C0183
:100830004AE050E086EE95E00E943B13C6010F901F
:100840000F900F900F908F3F910519F014F08FEFDC
:1008500090E0EC018034910514F4C0E4D0E04AE06B
:1008600050E0BE0186EE95E00E943B13BE0189E098
:10087000DF91CF911F910F91FF90EF90DF90CF907C
:10088000BF90AF909F908F907F906F905F904F90B0
:100890000C94A91560E070E08AE00E94A91560E060
:1008A00083E0DF91CF911F910F91FF90EF90DF9048
:1008B000CF90BF90AF909F908F907F906F905F9000
:1008C0004F900C946D16CF92DF92EF92FF920F93A0
:1008D0001F93CF93DF93CDB7DEB728970FB6F89469
:1008E000DEBF0FBECDBF86EE95E00E94611267EAC3
:1008F00072E086EE95E00E94651288E095E00E9425
:1009000094070E94B1176B0188E095E00E94A3074D
:100910000E94B1178B0163EC72E086EE95E00E94B5
:1009200058124AE050E0B60186EE95E00E94D412DB
:1009300060ED72E086EE95E00E9458124AE050E0C9
:10094000B80186EE95E00E94DA12CE0101967C0194
:1009500088E0F70111928A95E9F7C982DA820B8360
:100960001C838FE00E948815BC01990F880B990B9E
:100970000E94E2170E94920120E030E048EC52E42D
:100980000E94E7180E94B1178B0180E10E94881530
:10099000BC01990F880B990B0E94E2170E949201EB
:1009A00020E030E048EC52E40E94E7180E94B117C2
:1009B0000D831E836F8378876FED72E086EE95E07E
:1009C0000E94581287016E01F9E0CF0ED11CF80188
:1009D00061918F0140E150E086EE95E00E94CD12DA
:1009E0006EE272E086EE95E00E9458120C151D052D
:1009F00071F786EE95E00E946112CC24C39408E062
:100A000020E047E650E060E070E087E195E00E947A
:100A1000CA0F28960FB6F894DEBF0FBECDBFDF9188
:100A2000CF911F910F91FF90EF90DF90CF9008959D
:100A30001F93CF93DF93EA016F367105810591050E
:100A400009F46CC098F4623671058105910509F4CA
:100A50008DC0683671058105910509F482C0663341
:100A600071058105910509F09EC08CC0613A710540
:100A70008105910519F1623A710581059105B1F180
:100A8000603A71058105910509F08DC06BEE72E049
:100A900086EE95E00E945812EFEEF4E09E01285F8A
:100AA0003F4F898190E0982F88274881842B81933C
:100AB000919322962C173D07A1F775C069EF72E05C
:100AC00086EE95E00E945812E7EFF4E09E01285F61
:100AD0003F4F898190E0982F88274881842B81930C
:100AE00091932296C217D307A1F75DC067E073E028
:100AF00086EE95E00E945812EFEFF4E09E012A5F27
:100B00003F4F898190E0982F88274881842B8193DB
:100B100091932296C217D307A1F745C00E94D7141C
:100B20006093E2047093E3048093E4049093E504FB
:100B300081E0809307051881113049F465E173E085
:100B400086EE95E00E9458121093000101C01882B1
:100B500068E273E086EE95E0DF91CF911F910C94EF
:100B60006512DF91CF911F910C941502F89498E0D3
:100B700088E10FB6F894A895809360000FBE90931B
:100B80006000FFCF8881823029F481E080930605E0
:100B900060E003C01092060561E084E0DF91CF9130
:100BA0001F910C946D16DF91CF911F9108950F93B3
:100BB0001F93CF93DF93CDB7DEB729970FB6F89485
:100BC000DEBF0FBECDBF198687E195E00E945610AB
:100BD000833099F4AE014F5F5F4FBE01675F7F4F77
:100BE00087E195E00E94351087E195E00E945E1054
:100BF000AE014F5F5F4F0E9418050E94D71400910D
:100C0000E6041091E7042091E8043091E9040053D0
:100C1000184F2F4F3F4F061717072807390720F5A2
:100C200080910605882301F187E00E949C16892B9C
:100C300069F46BE373E086EE95E00E94651281E053
:100C40008093EE0461E084E00E946D1660E084E031
:100C50000E946D160E94D7146093E6047093E70417
:100C60008093E8049093E9040E94D7140091EA0469
:100C70001091EB042091EC043091ED040C501E4FC8
:100C80002F4F3F4F0617170728073907A0F461E4D5
:100C900073E086EE95E00E9465120E94D71460937F
:100CA000EA047093EB048093EC049093ED040E94AB
:100CB00001030E94630429960FB6F894DEBF0FBEAD
:100CC000CDBFDF91CF911F910F91089566E087E12D
:100CD00095E00E94360F60E488E095E00C943D07B3
:100CE000DC01ED91FC910190F081E02D0994FF92DF
:100CF0000F931F93CF93DF93EC01F62E8A016A8145
:100D0000888199810E94690888819981DC01ED912F
:100D1000FC910190F081E02D6F2D0995612F70E01D
:100D2000888199810E947006B8017727888199810E
:100D30000E94700688819981DF91CF911F910F9158
:100D4000FF900C94ED08FF920F931F93CF93DF93C6
:100D5000EC01F62E8A016A81888199810E946908D6
:100D600088819981DC01ED91FC910190F081E02D69
:100D70006F2D0995888199810E94ED0861E070E0EE
:100D800080E090E00E94081542E06A8188819981A4
:100D90000E94EA0888819981DC01ED91FC9106802E
:100DA000F781E02D0995F82E88819981DC01ED917C
:100DB000FC910680F781E02D099520E030E03F2D81
:100DC000822B932BF80191838083DF91CF911F9128
:100DD0000F91FF900895CF93DF93EC0180E090E1B5
:100DE000A0E0B0E08B839C83AD83BE838AE090E07B
:100DF000A0E0B0E08F839887A987BA8780E090E071
:100E0000A0E0B0E48B879C87AD87BE8740E050E1CF
:100E100065E0CE010E9477064FE959E360E0CE011C
:100E2000DF91CF910C947706CF93DF93EC0180E0B4
:100E300098E2A0E0B0E08B839C83AD83BE8389E120
:100E400090E0A0E0B0E08F839887A987BA878DEC07
:100E50009CECACE4BFE38B879C87AD87BE8740E00A
:100E600058E265E0CE010E9477064FE959E360E061
:100E7000CE01DF91CF910C947706FC01628317823B
:100E80001086118612861386148615861686089596
:100E9000CF93DF93EC01888199810E945F08CE0196
:100EA000DF91CF910C94EB0621E235E0FC01318318
:100EB00020830C944807CF93DF9300D0CDB7DEB7E3
:100EC000AE014F5F5F4F62E00E94A30689819A8165
:100ED00023E0969587952A95E1F7880F991F880F4B
:100EE000991F0F900F90DF91CF9108950F931F934B
:100EF000CF93DF9300D0CDB7DEB78C01FC014381E7
:100F0000548165E00E947706AE014F5F5F4F64E059
:100F1000C8010E94A30689819A810F900F90DF91EA
:100F2000CF911F910F9108950E945B07BC01990F0B
:100F3000880B990B0E94E2172FE632E143E85AE34F
:100F40000E94E7180895CF92DF92EF92FF92CF931D
:100F5000DF93EC010E947607BC01990F880B990B77
:100F60000E94E2176B017C016F81788589859A85E3
:100F70000E94E0179B01AC01C701B6010E9438171F
:100F8000DF91CF91FF90EF90DF90CF900895809107
:100F9000510590E020915205821B9109089590918E
:100FA000520580915105981750F4E92FF0E0ED5A61
:100FB000FA4F208130E09F5F9093520502C02FEFDF
:100FC0003FEFC9010895E091520580915105E8175E
:100FD00030F4F0E0ED5AFA4F808190E008958FEF01
:100FE0009FEF08950895CF92DF92EF92FF920F93B3
:100FF0001F93CF93DF937C01CB018A0120912D05B4
:10100000222389F0EB016B01C40ED51ECC15DD0542
:1010100069F06991D701ED91FC910190F081E02D8B
:10102000C7010995F3CF642F0E94B009C801DF9171
:10103000CF911F910F91FF90EF90DF90CF90089587
:10104000CF93DF931F92CDB7DEB7698320912D0533
:101050002223D1F020912E05203240F021E030E013
:10106000FC013383228380E090E015C080912F053E
:10107000E82FF0E0E05DFA4F998190838F5F8093D5
:101080002F0580932E0505C061E0CE0101960E94D8
:10109000B00981E090E00F90DF91CF910895FC01BD
:1010A0001382128288EE93E0A0E0B0E084839583FF
:1010B000A683B78380E693E091838083089510929E
:1010C00052051092510510922F0510922E050C9486
:1010D000F40881E080932D056093500510922F0550
:1010E00010922E0508950F93062F21E040912E05B2
:1010F00060E375E0809150050E945A0910922F0517
:1011000010922E0510922D050F9108954F925F9227
:101110006F927F92AF92BF92CF92EF92FF920F9316
:101120001F93CF93DF935C01F62ED42F2801390152
:10113000EE2021F10E946908CE2DC43008F0C3E0F2
:10114000C150C0F028E0C29FC0011124A301920148
:1011500004C056954795379527958A95D2F7CA01C9
:10116000B901D501ED91FC910190F081E02DC5010F
:101170000995E6CF60E0C5010E9473084D2FD1327A
:1011800008F040E22C2D63E575E08F2D0E941209D6
:101190001092520580935105DF91CF911F910F91CD
:1011A000FF90EF90CF90BF90AF907F906F905F9047
:1011B0004F900895CF92EF920F931F93C22EE12C80
:1011C00000E010E098010E9486081F910F91EF90B7
:1011D000CF90089521E00C94DA0861E00C94730834
:1011E00081E295E00C944F081092E00581E0809335
:1011F000DE051092DD0561E082E10E946D1661E07E
:1012000083E10E946D16E9EBF0E080818E7F8083A0
:1012100080818D7F808380E28093B80085E4809315
:10122000BC000895413208F043C09091E00591114F
:10123000FCCF91E09093E0052093DE052FEF209303
:1012400073051092B805240F2093B7059093DF051E
:101250009091DF05880F892B8093DF058091DD0554
:10126000813061F41092DD058091DF058093BB0031
:101270008091BC0083FDF8CF85EC01C085EE8093A2
:10128000BC008091E0058130E1F38091B8058417BE
:1012900010F44091B805A9EBB5E0962FFB018E2F15
:1012A000891B841718F48D918193F9CF842F0895A9
:1012B00080E008950F93413208F04AC09091E00514
:1012C0009111FCCF32E03093E0050093DE053FEF53
:1012D000309373051092B8054093B705562FA9EBCC
:1012E000B5E0FB013E2F351B341718F431913D93C7
:1012F000F9CF1092DF053091DF05880F832B8093A3
:10130000DF058091DD05813061F41092DD0580916B
:10131000DF058093BB008091BC0083FDF8CF85EC96
:1013200001C085EE8093BC00222321F08091E0056E
:101330008230D1F3809173058F3F79F080917305EE
:10134000803241F080917305803331F094E005C024
:1013500091E003C092E001C093E0892F0F910895BE
:10136000613298F42091E005243089F4609395056A
:10137000282FA7E9B5E0FC018E2F821B861718F4F1
:1013800081918D93F9CF80E0089581E0089582E006
:10139000089585ED8093BC008091BC0084FDFCCF56
:1013A0001092E005089585EC8093BC001092E00552
:1013B00008951F920F920FB60F9211242F933F930F
:1013C0004F935F936F937F938F939F93AF93BF934D
:1013D000EF93FF938091B900887F803609F49EC017
:1013E00078F5883209F45DC090F4803109F456C074
:1013F00038F4882309F4F5C0883009F44FC0F5C0EB
:10140000883109F44EC0803209F45FC0EEC08034E8
:1014100009F46AC058F4803309F457C0883309F0DE
:10142000E4C0809373050E94D309DFC0803509F4BE
:101430004FC0883509F45DC0883409F0D6C0D3C0E8
:10144000883909F4C4C0A8F4883709F467C038F4AF
:10145000883609F463C0803709F460C0C6C0883894
:1014600009F4B5C0803909F45FC0803809F0BDC007
:101470005BC0803B09F483C038F4803A09F466C04D
:10148000883A09F47CC0B1C0803C09F4A4C0883C0F
:1014900009F4A1C0883B09F487C0A7C08091DF058B
:1014A00010C09091B8058091B705981770F5E0913C
:1014B000B80581E08E0F8093B805F0E0E754FA4F4D
:1014C00080818093BB0085EC83C0809373058BC0C3
:1014D000E091B80581E08E0F8093B8058091BB0044
:1014E000F0E0E754FA4F80839091B8058091B705FA
:1014F0006BC0E091B80581E08E0F8093B8058091B4
:10150000BB00F0E0E754FA4F80838091DE05811143
:101510006AC081E08093DD0584EA5EC083E0809349
:10152000E00510927405CFCF80917405803208F0E9
:101530004EC0E091740581E08E0F80937405809118
:10154000BB00F0E0EB58FA4F8083BDCF0E94D30977
:1015500080917405803230F4E0917405F0E0EB582E
:10156000FA4F10826091740570E0E091D905F09116
:10157000DA0585E795E009951092740536C084E098
:101580008093E0051092960510929505E091DB0599
:10159000F091DC05099580919505811105C081E0E8
:1015A0008093950510929705E091960581E08E0F46
:1015B00080939605F0E0E956FA4F80818093BB0056
:1015C0009091960580919505981708F47CCF85E851
:1015D0008093BC000AC085EC8093BC001092E005AB
:1015E00004C0109273050E94C909FF91EF91BF9149
:1015F000AF919F918F917F916F915F914F913F91AB
:101600002F910F900FBE0F901F901895CF93CFB7CB
:10161000F8948091E405811127C0E2E4F1E084911F
:10162000EBE2F1E09491E82FF0E0EE0FFF1FED59AF
:10163000FE4FA591B491EC91E92321F461E08AE099
:101640000E946D1661E08AE00E9431168CB58061BF
:101650008CBD8CB580648CBD61E08DE00E9431163C
:1016600061E08BE00E9431168091E4058F5F8093EA
:10167000E405CFBFCF9108952091E305222399F08F
:101680004FB7F8942091E305213059F42DB32093FE
:10169000E1053DB32091E205209523232DBB4FBFEB
:1016A00002C04093E1058CBD9DBD08958EBD000034
:1016B0000DB407FEFDCF8EB508958091E305882314
:1016C00061F09FB7F8942091E3058091E105213006
:1016D00019F48DBB9FBF08958FBF0895813431F0F9
:1016E000813531F0813331F080E0089582E808954A
:1016F00084E8089581E80895813431F0813531F02E
:10170000813331F080E0089582E4089584E40895FF
:1017100080E40895CF93DF93EC0180E591E00E948F
:101720003C0B60E08E810E946D1680EC0E94560B8F
:1017300061E08E810E946D160E945D0B6AE070E090
:1017400080E090E0DF91CF910C9408151F93CF9328
:10175000DF93EC01162F80E591E00E943C0B60E0E6
:101760008E810E946D1683E00E94560B812F0E948D
:10177000560B80E00E94560B182F61E08E810E946C
:101780006D160E945D0B812FDF91CF911F910895FF
:101790000F931F93CF93DF93EC01062F142F80E557
:1017A00091E00E943C0B60E08E810E946D1682E009
:1017B0000E94560B802F0E94560B812F0E94560BC1
:1017C00061E08E810E946D16DF91CF911F910F9184
:1017D0000C945D0BFF920F931F93CF93DF93EC015B
:1017E000F62E042F122F80E591E00E943C0B60E062
:1017F0008E810E946D1685E00E94560B8F2D0E94EF
:10180000560B802F0E94560B812F0E94560B61E0D1
:101810008E810E946D16DF91CF911F910F91FF90E5
:101820000C945D0B1F93CF93DF93EC0180E591E067
:101830000E943C0B60E08E810E946D1680EA0E943F
:10184000560B80E00E94560B182F61E08E810E949B
:101850006D160E945D0B812FDF91CF911F9108952E
:101860000F931F93CF938C01C62F262F40EE6FE06E
:101870000E94EA0B6FE0C8010E94A60B982F907E91
:1018800081E09C1301C080E0CF911F910F910895DA
:101890000F931F93CF93DF93413021F0423009F42F
:1018A0003FC071C0462F50E0FA013197E231F10597
:1018B00008F069C0EC5CFF4F0C94F319C7E8DFEF48
:1018C0006EC0C7E0DAEB67C0C5E8D1EF64C0C7E01F
:1018D000DEEB49E065C0C7E8DFEF35C0C7E8DAEF07
:1018E00032C0C7E8DFEF36C0C7E0DEEB33C0C7E089
:1018F000DDEA30C0C7E8DAEF2DC0C6E8D0EF2AC075
:10190000C7E8DAEF2EC0C5E8D1EF41E449C0C6E828
:10191000D0EF2EC0C4E0D0EA2BC0C2E8D0ED28C082
:10192000462F50E0FA013197E231F10560F5EA5BAC
:10193000FF4F0C94F319C7E0DFEB2DC0C7E0DFEBDE
:1019400002C0C4E0D4EA47E02BC0C7E0DFEB02C02E
:10195000C6E0D4EB43E024C0C7E0DFEB02C0C6E042
:10196000D4EB41E01DC0C5E0D1EBFBCFC6E0D4EB2A
:1019700040E016C0C5E0D1EBFBCFC2E0D0E9F8CF24
:10198000C0E0D0E8F5CF81E01AC0C7E8DFEF4FE351
:1019900007C0C7E8DFEF4FE003C0C7E0DFEB4FE170
:1019A0008C016AE20E94C80B4D2F69E2C8010E94B7
:1019B000C80B4C2F68E2C8010E94C80B80E0DF9181
:1019C000CF911F910F9108950F931F93CF938C0187
:1019D000C0E340E06C2FC8010E94C80B60E16C0FAF
:1019E00040E0C8010E94C80B60E26C0F40E0C801F3
:1019F0000E94C80BCF5FCE3361F740E060E6C801BC
:101A00000E94C80B40E060E7C801CF911F910F9181
:101A10000C94C80BFF920F931F93CF93DF93EC01AD
:101A2000062FF42E0E948A0B60E8CE010E94300C33
:101A3000182F882319F06CE673E036C066E873E06F
:101A400086EE95E00E9458124F2D602FCE010E9425
:101A5000480C882319F064EA73E026C066EB73E053
:101A600086EE95E00E945812CE010E94E40C43E0FD
:101A70006BE2CE010E94C80B24E044E660E6CE0192
:101A80000E94EA0B20E040E660E7CE010E94EA0BEC
:101A900060E0CE010E94300C182F882319F06BEC07
:101AA00073E002C066EE73E086EE95E00E94581285
:101AB000812FDF91CF911F910F91FF900895F90130
:101AC0008130B1F443835283AB0166277727942F8B
:101AD0009C71842F837028E0929F800D1124886070
:101AE000818365E0569547956A95E1F740830895AF
:101AF000CA0123E0969587952A95E1F78083429560
:101B0000440F407E41831382128208952F923F92A8
:101B10004F925F926F927F928F929F92AF92BF92FD
:101B2000CF92DF92EF92FF920F931F93CF93DF93A9
:101B300000D000D01F92CDB7DEB74C01562E5A010F
:101B4000190138014C2CDD8260E0FC0186810E9485
:101B50006D16852D0E94560B8E010F5F1F4F6E0173
:101B6000F5E0CF0ED11C80E00E94560BF801819366
:101B70008F01EC15FD05B9F72A813981822F90E09C
:101B800065E0959587956A95E1F7F8E03F9F800DB0
:101B9000911D1124092E000CAA0BBB0BF5018083AB
:101BA0009183A283B383F101108223FF3AC0F50130
:101BB00080819181A281B38132E0880F991FAA1F91
:101BC000BB1F3A95D1F72370820F911DA11DB11D46
:101BD00080839183A283B38380819181A281B38129
:101BE000BA2FA92F982F88272B81820F911DA11D15
:101BF000B11D80839183A283B38380819181A2816F
:101C0000B381BA2FA92F982F88272C81820F911D7D
:101C1000A11DB11D80839183A283B38381E0F10173
:101C2000808380E00E94560B982F9F70F70190836D
:101C300086FB882780F9F3018083C42CDD8010E0C7
:101C4000F7018081181750F4183041F080E00E94AD
:101C5000560BF60181936F011F5FF2CF61E0F40133
:101C600086810F900F900F900F900F90DF91CF9182
:101C70001F910F91FF90EF90DF90CF90BF90AF90AA
:101C80009F908F907F906F905F904F903F902F909C
:101C90000C946D161F93CF93DF93EC01162F80E504
:101CA00091E00E943C0B60E08E810E946D16812FB6
:101CB0000E946E0B0E94560B61E08E810E946D1691
:101CC000DF91CF911F910C945D0B4F925F926F92B9
:101CD0007F928F929F92AF92BF92CF92DF92EF92BC
:101CE000FF920F931F93CF93DF9300D000D0CDB717
:101CF000DEB74C01D62E29013A01862F0E947C0BBB
:101D0000182FE11002C0F12C02C080E4F82E9E01D1
:101D10002F5F3F4FB301A201802F0E945F0D80E52E
:101D200091E00E943C0B60E0F40186810E946D16F8
:101D3000812F0E94560B8E010F5F1F4F3E01F5E071
:101D40006F0E711CF80181918F010E94560B0615D0
:101D50001705C1F78C2D8F290E94560B750110E0D5
:101D60001C1549F0183039F0F70181917F010E946C
:101D7000560B1F5FF5CF61E0F40186810E946D165E
:101D80000E945D0B6D2DC4010E944A0E0F900F90B2
:101D90000F900F90DF91CF911F910F91FF90EF90D7
:101DA000DF90CF90BF90AF909F908F907F906F907B
:101DB0005F904F900895EF92FF920F931F93CF93F0
:101DC0008C017B010E94120C8475F701108284350E
:101DD00091F1F801918543E050E0491B5109EDEB89
:101DE000F4E090E0292F30E02417350724F59330F4
:101DF00010F4C08101C0CFEFC8233196C11119C0C2
:101E0000933028F4F901ED53FB4F808101C080E548
:101E10008F5FF7018083933028F4F901E054FB4F82
:101E2000408101C040E020E06CE2C8010E94EA0B62
:101E300003C09F5FD7CFC2E08C2FCF911F910F912E
:101E4000FF90EF900895CF93DF93EC01662359F054
:101E5000862F6E8361E00E94311661E08E81DF91F2
:101E6000CF910C946D16DF91CF910895FC011186EE
:101E700025EE35E0308727830C94230F0F931F93B3
:101E8000CF93DF93EC01162F042F0E94060B402FF7
:101E9000612FCE010E940A0D91E0811101C090E0F6
:101EA000892FDF91CF911F910F9108952F923F922B
:101EB0004F925F926F927F928F929F92AF92BF925A
:101EC000CF92DF92EF92FF920F931F93CF93DF9306
:101ED0001F92CDB7DEB74C012A013B01222E302ED6
:101EE000FA2CFC014183528363837483208305832E
:101EF00000E010E0BE016F5F7F4FC4010E94DB0E67
:101F00000F5F1F4F823041F40233110561F18AE007
:101F100090E00E944415EECF0233110521F15601E5
:101F2000CE2CE32C022DA30192016981C4010E94F1
:101F3000650EFF20B1F000E010E00F5F1F4F6981D8
:101F40006150C4010E94A60B83FF08C00233110533
:101F500061F08AE090E00E944415EFCF0233110552
:101F600021F080E003C086E001C087E00F90DF91A0
:101F7000CF911F910F91FF90EF90DF90CF90BF9086
:101F8000AF909F908F907F906F905F904F903F9019
:101F90002F900895AF92CF92DF92EF92FF920F931E
:101FA000AC2C6701E02E00E00E94560F0F91FF90CD
:101FB000EF90DF90CF90AF9008956F927F928F92C5
:101FC0009F92AF92BF92CF92DF92EF92FF920F93C8
:101FD0001F93CF93DF93EC015A014901380160FF51
:101FE00002C060E903C061FF15C064E9CE010E9430
:101FF000860DF30180818D83F40180818883F50152
:1020000080819181A281B38189839A83AB83BC83D0
:1020100080E003C0F701108284E0DF91CF911F912F
:102020000F91FF90EF90DF90CF90BF90AF909F9077
:102030008F907F906F9008950E94120C382F3B7AFA
:1020400083FD02C020E001C024E085FD02C090E0D5
:1020500001C098E0832F881F8827881F8295807F82
:102060003370232B922B892B0895CF92DF92EF921E
:10207000FF920F931F93CF93DF93EC017B016A01D3
:102080000E941C108E010B5F1F4FAE014F5F5F4F10
:102090009E01682FCE010E94DD0FDF91CF911F912D
:1020A0000F91FF90EF90DF90CF9008950E94120C57
:1020B000837011F484E0089583E00895FC01618148
:1020C0007281838194810895FC01918D228D892FE5
:1020D00090E0805C9F4F821B91098F739927089530
:1020E000FC01918D828D981731F0828DE80FF11DE2
:1020F000858D90E008958FEF9FEF0895FC01918DFD
:10210000828D981761F0828DDF01A80FB11D5D9659
:102110008C91928D9F5F9F73928F90E008958FEFC7
:102120009FEF089582EE91E1892B49F080E090E0E5
:10213000892B29F00E94E21181110C94000008956E
:10214000FC01848DDF01A80FB11DA35ABF4F2C9154
:10215000848D90E001968F739927848FA689B78923
:102160002C93A089B1898C9180648C93938D848DFC
:10217000981306C00288F389E02D80818F7D8083CB
:102180000895EF92FF920F931F93CF93DF93EC018B
:1021900081E0888F9B8D8C8D981305C0E889F98923
:1021A000808185FD24C0F62E0B8D10E00F5F1F4F40
:1021B0000F731127E02E8C8DE8120CC00FB607FCB0
:1021C000FACFE889F989808185FFF5CFCE010E9499
:1021D000A010F1CF8B8DFE01E80FF11DE35AFF4FE8
:1021E000F0820B8FEA89FB898081806207C0EE89CB
:1021F000FF896083E889F98980818064808381E038
:1022000090E0DF91CF911F910F91FF90EF90089593
:10221000CF93DF93EC01888D8823C9F0EA89FB898D
:10222000808185FD05C0A889B9898C9186FD0FC084
:102230000FB607FCF5CF808185FFF2CFA889B98959
:102240008C9185FFEDCFCE010E94A010E7CFDF91EA
:10225000CF910895CF92DF92EF92FF921F93CF9389
:10226000DF93EC016A017B01122F60E874E88EE1D4
:1022700090E0A70196010E94B219DA01C901019705
:10228000A109B109B695A795979587959C01E8890D
:10229000F98982E08083211580E13807A8F0E88978
:1022A000F989108260E472E48FE090E0A701960162
:1022B0000E94B219DA01C9010197A109B109B695C5
:1022C000A795979587959C01EC85FD853083EE85D4
:1022D000FF852083188EEC89FD891083EA89FB89AC
:1022E000808180618083EA89FB8980818860808326
:1022F000EA89FB89808180688083EA89FB89808103
:102300008F7D8083DF91CF911F91FF90EF90DF90C1
:10231000CF9008951F920F920FB60F9211242F9312
:102320008F939F93EF93FF93E091F605F091F7055C
:102330008081E091FC05F091FD0582FD12C0908145
:102340008091FF058F5F8F7320910006821751F0F7
:10235000E091FF05F0E0EA51FA4F958F8093FF0579
:1023600001C08081FF91EF919F918F912F910F90EC
:102370000FBE0F901F9018951F920F920FB60F92DD
:1023800011242F933F934F935F936F937F938F937A
:102390009F93AF93BF93EF93FF9386EE95E00E94D8
:1023A000A010FF91EF91BF91AF919F918F917F917D
:1023B0006F915F914F913F912F910F900FBE0F90B2
:1023C0001F90189586EE95E00E94641021E0892BFD
:1023D00009F420E0822F0895E6EEF5E013821282E0
:1023E00088EE93E0A0E0B0E084839583A683B78372
:1023F0008AEC94E09183808385EC90E095878487D4
:1024000084EC90E09787868780EC90E0918B808BBE
:1024100081EC90E0938B828B82EC90E0958B848BA7
:1024200086EC90E0978B868B118E128E138E148E15
:102430000895CF92DF92EF92FF920F931F93CF9365
:10244000DF936C017A018B01C0E0D0E0CE15DF058F
:1024500081F0D8016D918D01D601ED91FC91019033
:10246000F081E02DC6010995892B11F02196EECF60
:102470007E01C701DF91CF911F910F91FF90EF90E7
:10248000DF90CF9008956115710579F0FB010190FF
:102490000020E9F73197AF01461B570BDC01ED91A6
:1024A000FC910280F381E02D099480E090E0089592
:1024B0000C944312DC01ED91FC910190F081E02D30
:1024C000099461EA73E00C9443120F931F93CF9326
:1024D000DF93EC010E9443128C01CE010E94611235
:1024E000800F911FDF91CF911F910F9108958F92CF
:1024F0009F92AF92BF92EF92FF920F931F93CF9351
:10250000DF93CDB7DEB7A1970FB6F894DEBF0FBE4D
:10251000CDBF7C01FA01CB0119A2223008F42AE0D8
:102520008E010F5D1F4F822E912CA12CB12CBF016B
:10253000A50194010E94B219F901CA0101501109C3
:102540006A3014F4605D01C0695CD8016C93232B80
:10255000242B252B61F7B801C7010E944312A196D5
:102560000FB6F894DEBF0FBECDBFDF91CF911F91A4
:102570000F91FF90EF90BF90AF909F908F90089534
:102580002115310541F4DC01ED91FC910190F081C0
:10259000E02D642F09940C9477129A01462F50E095
:1025A00060E070E00C94C0129A01AB0160E070E052
:1025B0000C94C0120F931F93CF93DF93EC010E94F2
:1025C000D4128C01CE010E946112800F911FDF9105
:1025D000CF911F910F910895CF92DF92EF92FF92CA
:1025E0000F931F93CF93DF932115310581F4DC0105
:1025F000ED91FC910190F081E02D642FDF91CF915E
:102600001F910F91FF90EF90DF90CF9009942A30A7
:10261000310501F577FF1DC06A017B01EC016DE218
:102620000E945A128C0144275527BA014C195D09A2
:102630006E097F092AE0CE010E947712800F911F58
:10264000DF91CF911F910F91FF90EF90DF90CF908E
:1026500008952AE0DF91CF911F910F91FF90EF90A5
:10266000DF90CF900C9477129A01AB01770F660B35
:10267000770B0C94EC120F931F93CF93DF93EC0125
:102680000E9434138C01CE010E946112800F911FB1
:10269000DF91CF911F910F9108957F928F929F921A
:1026A000AF92BF92CF92DF92EF92FF920F931F9360
:1026B000CF93DF938C016A017B01722E9A01AB01EB
:1026C000C701B6010E945419882319F066ED74E021
:1026D00027C046015701E894B7F82FEF3FEF4FE7C7
:1026E0005FE7C501B4010E94541981110DC02FEF9D
:1026F0003FEF4FE75FE7C501B4010E94331718169B
:102700001CF46AED74E00CC02FEF3FEF4FE75FE47D
:10271000C701B6010E949218181694F46EED74E089
:10272000C801DF91CF911F910F91FF90EF90DF9043
:10273000CF90BF90AF909F908F907F900C9443125A
:102740002FEF3FEF4FE75FECC701B6010E94331751
:1027500087FDE4CF20E030E0A901C701B6010E9467
:10276000331787FF0AC06DE2C8010E945A12EC01BC
:10277000F7FAF094F7F8F09402C0C0E0D0E0B12C82
:1027800060E070E080E09FE37B1441F020E030E007
:1027900040E251E40E943817B394F6CFA7019601A6
:1027A0000E94C7166B017C010E94B1174B015C01AE
:1027B0002AE0AB01BC01C8010E947712C80FD91FE3
:1027C0007720B9F1C501B4010E94E0179B01AC016B
:1027D000C701B6010E94C6166B017C016EE2C801FA
:1027E0000E945A12C80FD91F20E030E040E251E4A5
:1027F000C701B6010E94E7184B015C010E94B117A6
:102800006B017C014AE050E0C8010E94D412C80F5D
:10281000D91FB60180E090E00E94E0179B01AC0157
:10282000C501B4010E94C6166B017C017A94711037
:10283000DBCFCE01DF91CF911F910F91FF90EF90F1
:10284000DF90CF90BF90AF909F908F907F90089532
:102850000C944D130F931F93CF93DF93EC010E94C1
:102860004D138C01CE010E946112800F911FDF91E8
:10287000CF911F910F9108954F925F926F927F9227
:10288000AF92BF92CF92DF92EF92FF920F931F937E
:10289000CF93DF93CDB7DEB729013A019B01AC019D
:1028A000241935094609570989899A89AB89BC8950
:1028B000BC01CD016A197B098C099D090E948E1902
:1028C000A801970124193509460957090E94D4190E
:1028D000CA01B9016A0D7B1D8C1D9D1DDF91CF9131
:1028E0001F910F91FF90EF90DF90CF90BF90AF902E
:1028F0007F906F905F904F90089508950E944D15BE
:102900000E947D140E94E400C2E9D0E10E94D70534
:102910002097E1F30E949210F9CF1F920F920FB609
:102920000F9211242F933F938F939F93AF93BF9355
:102930008091840690918506A0918606B0918706C5
:102940003091830626E0230F2D3720F40296A11D37
:10295000B11D05C029E8230F0396A11DB11D2093C9
:1029600083068093840690938506A0938606B09391
:1029700087068091880690918906A0918A06B09179
:102980008B060196A11DB11D809388069093890640
:10299000A0938A06B0938B06BF91AF919F918F91C0
:1029A0003F912F910F900FBE0F901F9018952FB74A
:1029B000F8946091840670918506809186069091C6
:1029C00087062FBF08953FB7F894809188069091AD
:1029D0008906A0918A06B0918B0626B5A89B05C0F2
:1029E0002F3F19F00196A11DB11D3FBFBA2FA92F8E
:1029F000982F8827820F911DA11DB11DBC01CD010B
:102A000043E0660F771F881F991F4A95D1F70895F5
:102A10008F929F92AF92BF92CF92DF92EF92FF92EE
:102A20006B017C010E94E3144B015C01C114D104D1
:102A3000E104F10401F10E94C5160E94E314DC01D7
:102A4000CB0188199909AA09BB09883E9340A105C1
:102A5000B10560F321E0C21AD108E108F10888EE5F
:102A6000880E83E0981EA11CB11CC114D104E1049E
:102A7000F10419F7DBCFFF90EF90DF90CF90BF907C
:102A8000AF909F908F9008958330910528F0880F24
:102A9000991F04970197F1F70895789484B582609F
:102AA00084BD84B5816084BD85B5826085BD85B5F2
:102AB000816085BDEEE6F0E0808181608083E1E8A1
:102AC000F0E01082808182608083808181608083D9
:102AD000E0E8F0E0808181608083E1EBF0E08081DC
:102AE00084608083E0EBF0E0808181608083EAE7AE
:102AF000F0E0808184608083808182608083808137
:102B00008E7F80838081806880831092C1000895C9
:102B1000883028F08E3010F08E5001C08FEF209159
:102B2000010190E4299F900111248770822B8093EA
:102B30007C0080917A00806480937A0080917A0092
:102B400086FDFCCF809178002091790090E0922B57
:102B500008951F93CF93DF93182FEB0161E00E943C
:102B60003116209711F460E004C0CF3FD10539F44D
:102B700061E0812FDF91CF911F910C946D16E12FB1
:102B8000F0E0E65FFE4FE491E430F9F048F4E23023
:102B9000B9F0E330A1F584B5806284BDC8BD34C00E
:102BA000E830E9F0E93019F1E53049F5809180002D
:102BB000806280938000D0938B00C0938A0024C0F1
:102BC00084B5806884BDC7BD1FC0809180008068C7
:102BD00080938000D0938900C093880015C08091B5
:102BE000B00080688093B000C093B3000DC08091A6
:102BF000B00080628093B000C093B40005C0C038BC
:102C0000D1050CF0B5CFAFCFDF91CF911F910895D3
:102C1000843081F028F4823099F08330A1F0089557
:102C20008830A9F08930B9F08530D1F480918000E6
:102C30008F7D03C0809180008F77809380000895FE
:102C400084B58F7702C084B58F7D84BD089580914F
:102C5000B0008F7703C08091B0008F7D8093B0006B
:102C60000895CF93DF9390E0FC01EF5DFE4F249138
:102C7000FC01E85CFE4F8491882361F190E0880FAD
:102C8000991FFC01ED59FE4FC591D491FC01E75A03
:102C9000FE4FA591B491611109C09FB7F894888146
:102CA000209582238883EC912E230BC0623061F43F
:102CB0009FB7F8948881322F309583238883EC91D5
:102CC0002E2B2C939FBF06C08FB7F894E8812E2B34
:102CD00028838FBFDF91CF9108951F93CF93DF9308
:102CE000282F30E0F901E65FFE4F8491F901EF5D96
:102CF000FE4FD491F901E85CFE4FC491CC23C1F0A2
:102D0000162F81110E940816EC2FF0E0EE0FFF1F26
:102D1000E75AFE4FA591B4919FB7F894111104C0E2
:102D20008C91D095D82302C0EC91DE2BDC939FBF11
:102D3000DF91CF911F910895CF93DF93282F30E03B
:102D4000F901E65FFE4F8491F901EF5DFE4FD491EA
:102D5000F901E85CFE4FC491CC2391F081110E94EF
:102D60000816EC2FF0E0EE0FFF1FE15BFE4FA59180
:102D7000B491EC91ED2381E090E021F480E002C079
:102D800080E090E0DF91CF91089508955058BB27DF
:102D9000AA270E94DE160C9458180E944A1838F090
:102DA0000E94511820F039F49F3F19F426F40C9436
:102DB00047180EF4E095E7FB0C944118E92F0E94A8
:102DC000691858F3BA17620773078407950720F04C
:102DD00079F4A6F50C948B180EF4E0950B2EBA2F0F
:102DE000A02D0B01B90190010C01CA01A001112411
:102DF000FF27591B99F0593F50F4503E68F11A16BD
:102E0000F040A22F232F342F4427585FF3CF46954D
:102E100037952795A795F0405395C9F77EF41F166F
:102E2000BA0B620B730B840BBAF09150A1F0FF0F39
:102E3000BB1F661F771F881FC2F70EC0BA0F621F25
:102E4000731F841F48F4879577956795B795F79515
:102E50009E3F08F0B0CF9395880F08F09927EE0FAA
:102E60009795879508950E941D1808F481E00895AC
:102E70000E944C170C9458180E94511858F00E9448
:102E80004A1840F029F45F3F29F00C944118511181
:102E90000C948C180C9447180E94691868F39923B5
:102EA000B1F3552391F3951B550BBB27AA27621746
:102EB0007307840738F09F5F5F4F220F331F441F53
:102EC000AA1FA9F335D00E2E3AF0E0E832D0915087
:102ED0005040E695001CCAF72BD0FE2F29D0660F74
:102EE000771F881FBB1F261737074807AB07B0E8B7
:102EF00009F0BB0B802DBF01FF2793585F4F3AF0BD
:102F00009E3F510578F00C9441180C948C185F3F4B
:102F1000E4F3983ED4F3869577956795B795F79542
:102F20009F5FC9F7880F911D9695879597F908952A
:102F3000E1E0660F771F881FBB1F621773078407C6
:102F4000BA0720F0621B730B840BBA0BEE1F88F7D5
:102F5000E09508950E94B1176894B1110C948C18F3
:102F600008950E94711888F09F5798F0B92F9927FB
:102F7000B751B0F0E1F0660F771F881F991F1AF064
:102F8000BA95C9F714C0B13091F00E948B18B1E026
:102F900008950C948B18672F782F8827B85F39F025
:102FA000B93FCCF3869577956795B395D9F73EF4FD
:102FB00090958095709561957F4F8F4F9F4F0895A5
:102FC000E89409C097FB3EF49095809570956195C3
:102FD0007F4F8F4F9F4F9923A9F0F92F96E9BB2779
:102FE0009395F695879577956795B795F111F8CFF5
:102FF000FAF4BB0F11F460FF1BC06F5F7F4F8F4F60
:103000009F4F16C0882311F096E911C0772321F055
:103010009EE8872F762F05C0662371F096E8862FED
:1030200070E060E02AF09A95660F771F881FDAF744
:10303000880F9695879597F90895990F0008550F71
:10304000AA0BE0E8FEEF16161706E807F907C0F02E
:1030500012161306E407F50798F0621B730B840B36
:10306000950B39F40A2661F0232B242B252B21F410
:1030700008950A2609F4A140A6958FEF811D811DB0
:10308000089597F99F6780E870E060E008959FEFEA
:1030900080EC089500240A941616170618060906EF
:1030A000089500240A9412161306140605060895BE
:1030B000092E0394000C11F4882352F0BB0F40F446
:1030C000BF2B11F460FF04C06F5F7F4F8F4F9F4F86
:1030D000089557FD9058440F551F59F05F3F71F008
:1030E0004795880F97FB991F61F09F3F79F087956F
:1030F0000895121613061406551FF2CF4695F1DFF8
:1031000008C0161617061806991FF1CF8695710587
:10311000610508940895E894BB2766277727CB01BB
:1031200097F908950E941D1808F48FEF089516F07E
:103130000C9459190C94471868940C9441180E94E7
:103140007118A8F39923C1F3AEF3DF93CF931F93C4
:103150000F93FF92C92FDD2788232AF02197660F4E
:10316000771F881FDAF720E030E040E85FEB9FE34D
:10317000883920F0803E38F021968F770E94C7165C
:10318000E0EBF0E004C00E94C716EDEDF0E00E9415
:1031900067198B01BE01EC01FB2E6F577109759504
:1031A000771F880B990B0E94E21728E132E741E371
:1031B0005FE30E94FA18AF2D9801AE01FF900F91C6
:1031C0001F91CF91DF910E94DE160C9458180E9437
:1031D000FA180C9458180E944A1838F00E94511896
:1031E00020F0952311F00C9441180C9447181124E9
:1031F0000C948C180E94691870F3959FC1F3950F79
:1032000050E0551F629FF001729FBB27F00DB11D6A
:10321000639FAA27F00DB11DAA1F649F6627B00DFA
:10322000A11D661F829F2227B00DA11D621F739FE3
:10323000B00DA11D621F839FA00D611D221F749FF1
:103240003327A00D611D231F849F600D211D822F38
:10325000762F6A2F11249F5750409AF0F1F088235F
:103260004AF0EE0FFF1FBB1F661F771F881F91508C
:103270005040A9F79E3F510580F00C9441180C94E2
:103280008C185F3FE4F3983ED4F386957795679565
:10329000B795F795E7959F5FC1F7FE2B880F911DB6
:1032A0009695879597F908950E941D18880B990B9C
:1032B00008959F3F31F0915020F487957795679559
:1032C000B795880F911D9695879597F90895DF9387
:1032D000CF931F930F93FF92EF92DF927B018C01AC
:1032E000689406C0DA2EEF010E94FA18FE01E894F5
:1032F000A5912591359145915591A6F3EF010E9435
:10330000DE16FE019701A801DA9469F7DF90EF90CD
:10331000FF900F911F91CF91DF910895DB018F9363
:103320009F930E94F919BF91AF91A29F800D911DAB
:10333000A39F900DB29F900D1124089597FB072E27
:1033400016F4009407D077FD09D00E94041A07FCF8
:1033500005D03EF4909581959F4F089570956195A5
:103360007F4F0895A1E21A2EAA1BBB1BFD010DC0C1
:10337000AA1FBB1FEE1FFF1FA217B307E407F50725
:1033800020F0A21BB30BE40BF50B661F771F881F01
:10339000991F1A9469F760957095809590959B0197
:1033A000AC01BD01CF010895052E97FB1EF40094DA
:1033B0000E94EB1957FD07D00E94B21907FC03D0F9
:1033C0004EF40C94EB1950954095309521953F4F54
:1033D0004F4F5F4F089590958095709561957F4F01
:1033E0008F4F9F4F0895EE0FFF1F0590F491E02D32
:1033F00009940E94181AA59F900DB49F900DA49F48
:10340000800D911D11240895AA1BBB1B51E107C01B
:10341000AA1FBB1FA617B70710F0A61BB70B881F64
:10342000991F5A95A9F780959095BC01CD010895F3
:10343000A29FB001B39FC001A39F700D811D1124F5
:10344000911DB29F700D811D1124911D0895F89456
:02345000FFCFAC
:103452000101736574757028290043414E2042555D
:103462005320536869656C6420696E6974206661D3
:10347200696C00496E69742043414E2042555320C5
:10348200536869656C6420616761696E0043414EEF
:103492002042555320536869656C6420696E6974D3
:1034A200206F6B210063616C63756C617465546598
:1034B2006D7065726174757265430043616C63750A
:1034C2006C6174696E672074656D70657261747584
:1034D20072650061646352656164696E673A2000D7
:1034E2002C2074656D7065726174757265206465F7
:1034F2006720433A200074657374526F7574696E65
:103502006528290054657374696E6720696E746555
:10351200726E616C2066616E732E005465737469FD
:103522006E67207261646961746F722066616E7386
:103532002E0054657374696E6720636F6F6C696ED9
:10354200672070756D702E0054657374696E672004
:103552006272616B65206C696768742E00546573D2
:1035620074696E67204E5443732E004E54432031CB
:103572002054656D7020286465672043293A200035
:103582004E544320322054656D70202864656720B4
:1035920043293A200054657374696E67204C454490
:1035A200732E004C454431004C4544320075706422
:1035B20061746546616E7346726F6D54656D7073AA
:1035C2002829006D617854656D703A200052616D52
:1035D20070696E67207261646961746F72206661DE
:1035E2006E732E0050756D70206F6E2E0050756DCB
:1035F20070206F66662E007265706F7274566F6C03
:103602007461676543757272656E7454656D70732B
:10361200282900766F6C746167655F6D563A2000E9
:103622002C2063757272656E745F6D413A20006280
:103632007566546F53656E643A200049445F524D7B
:10364200435F54454D5053310049445F524D435FEF
:1036520054454D5053320049445F524D435F5445E7
:103662004D5053330049445F444153485F434F4FE9
:103672004C494E475F49440049445F444153485FC7
:10368200434F4F4C494E475F454E006661756C741F
:10369200007570646174696E67206C61737468652B
:1036A2006172746265617454696D650000000000A6
:1036B2002008F307C707CF07E307F207456E7465D3
:1036C200722073657474696E67206D6F646520661D
:1036D20061696C0D0A00456E7465722073657474BD
:1036E200696E67206D6F64652073756363657373BC
:1036F200200D0A0073657420726174652066616C26
:103702006C21210D0A007365742072617465207347
:1037120075636365737321210D0A00456E746572CA
:10372200204E6F726D616C204D6F64652046616939
:103732006C21210D0A00456E746572204E6F726D08
:10374200616C204D6F6465205375636365737321EB
:10375200210D0A00426567696E20746F20736574DB
:10376200204D61736B21210D0A00456E7465722034
:1037720073657474696E67206D6F64652066616C31
:103782006C0D0A00456E746572206E6F726D616C0D
:10379200206D6F64652066616C6C0D0A0073657440
:1037A200204D61736B207375636365737321210D03
:1037B2000A00426567696E20746F20736574204643
:1037C200696C74657221210D0A00456E7465722060
:1037D2006E6F726D616C206D6F64652066616C6CDA
:1037E2000D0A5365742066696C746572206661699E
:1037F2006C21210D0A007365742046696C74657230
:10380200207375636365737321210D0A00041040F0
:1038120004081030405000000000C110191264105A
:103822007E10701008116E616E00696E66006F7610
:0238320066002E
:107E000001C0ACC0112484B7882349F0982F9A7020
:107E1000923029F081FF02C097EF94BFD7D085E060
:107E20008093810082E08093C00088E18093C1004C
:107E300086E08093C20089E18093C4008EE0B1D0D7
:107E4000259A84E028E13EEF91E03093850020936D
:107E5000840096BBB09BFECF1D9AA8958150A9F7D0
:107E6000C0E0D0E092D0813471F48FD0182F9FD031
:107E7000123811F482E005C0113811F486E001C017
:107E800083E07CD068C0823411F484E103C085347F
:107E900019F485E094D05FC0853541F476D0C82FC1
:107EA00074D0D0E0D82BCC0FDD1F54C0863521F420
:107EB00084E085D080E0E5CF843679F566D065D062
:107EC000D82E63D0F82E00E011E05FD0F801819346
:107ED0008F01DE12FACF6BD0F5E4FF1201C0FFCFA5
:107EE00040E050E063E0CE0139D07E0100E011E0D7
:107EF000F8014081818150E0582B61E0C7012ED00C
:107F0000F2E0EF0EF11C0E5F1F4FD012F1CF40E0F8
:107F100050E065E0CE0122D01EC0843771F435D028
:107F200034D0F82E32D043D08E01F80185918F01E4
:107F300025D0FA94F110F9CF0EC0853739F437D037
:107F40008EE11CD085E91AD08FE09BCF813511F4EA
:107F500088E027D02CD080E111D084CFFC010A0129
:107F600067BFE895112407B600FCFDCF667029F0C5
:107F7000452B19F481E187BFE89508959091C000E1
:107F800095FFFCCF8093C60008958091C00087FFC5
:107F9000FCCF8091C00084FD01C0A8958091C600EF
:107FA0000895E0E6F0E098E1908380830895EDDFA6
:107FB000803219F088E0F5DFFFCF84E1DFCFCF9387
:107FC000C82FE3DFC150E9F7CF91F1CF282E80E031
:087FD000E8DFE0E0FF2709945F
:027FFE00020679
:0400000300007E007B
:00000001FF
