:100000000C94BA000C94E2000C94E2000C94E20010
:100010000C94E2000C94E2000C94E2000C94E200D8
:100020000C94E2000C94E2000C94E2000C94E200C8
:100030000C94E2000C94E2000C94E2000C94E200B8
:100040000C94A0140C94E2000C949D110C94CF110C
:100050000C94E2000C94E2000C94E2000C94E20098
:100060000C94EC090C94E200D80C710CDC0C740CB0
:10007000770C7A0C7E0C810C840C870C8A0C8D0C0E
:10008000900C930C960C9A0C9D0CA00CE00CAE0CF2
:10009000B10CD60CB40CD60CB80CBB0CBF0CD60CE7
:1000A000D60CC20CC60CC90CCD0CD00CD60CD30C83
:1000B00008000000BE922449123EABAAAA2ABECD77
:1000C000CCCC4C3E00000080BEABAAAAAA3E0000E9
:1000D0000000BF000000803F0000000000084178E1
:1000E000D3BB4387D1133D190E3CC3BD4282AD2B18
:1000F0003E68EC8276BED98FE1A93E4C80EFFFBE10
:1001000001C4FF7F3F000000000000000009000361
:1001100002000004050800000000000000000000CC
:100120000001020408102040800102040810200190
:100130000204081020408040040404040404040461
:10014000020202020202030303030303020203008A
:1001500000000023002600290000000000250028E0
:10016000002B0000000000240027002A0000790670
:100170000309FF1111241FBECFEFD8E0DEBFCDBFB2
:1001800014E0A0E0B1E0E8E7F4E302C005900D92CE
:10019000AA3DB107D9F726E0AAEDB4E001C01D924F
:1001A000A338B207E1F710E0CAEBD0E004C0219712
:1001B000FE010E94061AC73BD107C9F70E9491149D
:1001C0000C943A1A0C940000CF93DF9361E084E022
:1001D0000E94441661E084E00E94801661E088E09D
:1001E0000E9444168DED95E00E94741262E071E069
:1001F0008DED95E00E94781280918100887F81606A
:100200008093810061E086E00E94441661E08EE008
:100210000E94441661E082E00E94441661E089E099
:100220000E94441660E070E089E00E94BC1561E025
:100230008AE00E94441660E070E08AE00E94BC15EB
:1002400061E083E00E94441660E083E00E94801633
:1002500061E085E00E94441660E085E00E9480161F
:1002600026E040E052EC61E070E08DED95E00E9408
:100270003D110E94EA146093FB047093FC04809388
:10028000FD049093FE048FEF94E00E9467078FEFC8
:1002900094E00E94270764E670E080E090E00E940E
:1002A0001B1541E060E18EE095E00E94510F88232C
:1002B00069F06AE071E08DED95E00E94781263E2EA
:1002C00071E08DED95E00E947812E5CF6DE371E06D
:1002D0008DED95E00E94781261E082E00E94801628
:1002E000C0E0D0E0BE0185E00E94BC156AE070E08D
:1002F00080E090E00E941B152596CF3FD10591F735
:10030000CFEFD0E0BE0185E00E94BC156AE070E04E
:1003100080E090E00E941B152597A1F760E085E042
:10032000DF91CF910C9480168F929F92AF92BF92E3
:10033000CF92DF92EF92FF924B015C018DED95E041
:100340000E94741265E571E08DED95E00E947812CF
:10035000A501940160E070EC8FE794E40E94D91647
:100360009B01AC0160E070EC8FE794E40E944B17B6
:1003700020E030E040E85FE30E94D9169B01AC0129
:1003800060E070E48CE196E40E944B1720E030E4DA
:100390004CE156E40E944B170E94B21820E030E472
:1003A00043E555E40E944B172FE03FEC4BE55BE340
:1003B0000E94DA169B01AC0160E070E080E89FE3E8
:1003C0000E944B1723E333E948E853E40E94D9160F
:1003D0006B017C016BE671E08DED95E00E94781277
:1003E00063E871E08DED95E00E946B122AE030E049
:1003F000B501A4018DED95E00E943B1460E971E028
:100400008DED95E00E946B1222E030E0B701A6016D
:100410008DED95E00E943D14C701B601FF90EF906D
:10042000DF90CF90BF90AF909F908F900895CF9323
:10043000DF938DED95E00E94741266EA71E08DED18
:1004400095E00E94781260E070E089E00E94BC159F
:1004500060E070E08AE00E94BC1560E083E00E94EA
:10046000801660E085E00E94801668EE73E080E010
:1004700090E00E941B1564EB71E08DED95E00E9409
:1004800078126FEF70E089E00E94BC1568EB7BE0AA
:1004900080E090E00E941B1560E070E089E00E941F
:1004A000BC156BEC71E08DED95E00E947812C0E018
:1004B000D0E0BE018AE00E94BC1564E170E080E0FB
:1004C00090E00E941B152596CF3FD10591F768EB70
:1004D0007BE080E090E00E941B1560E070E08AE025
:1004E0000E94BC1562EE71E08DED95E00E947812DD
:1004F00061E083E00E94801668EB7BE080E090E0A2
:100500000E941B1560E083E00E94801668EF71E096
:100510008DED95E00E94781261E085E00E948016E2
:1005200068EB7BE080E090E00E941B1560E085E0D6
:100530000E9480166DE072E08DED95E00E947812C9
:100540006BE172E08DED95E00E946B128FE00E94EE
:100550009B15BC01990F880B990B0E94F5170E94FF
:100560009401AB01BC0122E030E08DED95E00E94EA
:100570003D1460E372E08DED95E00E946B1280E126
:100580000E949B15BC01990F880B990B0E94F517CF
:100590000E949401AB01BC0122E030E08DED95E0BA
:1005A0000E943D1465E472E08DED95E00E947812A2
:1005B00063E572E08DED95E00E94781261E08EE0D7
:1005C0000E94801668EE73E080E090E00E941B15A8
:1005D00060E08EE00E94801668E572E08DED95E0A7
:1005E0000E94781261E082E00E94801668EE73E05B
:1005F00080E090E00E941B1560E082E0DF91CF91E7
:100600000C9480164F925F926F927F928F929F927E
:10061000AF92BF92CF92DF92EF92FF920F931F9310
:10062000CF93DF938DED95E00E9474126DE572E03B
:100630008DED95E00E947812CAEDD4E08E01F801AC
:10064000619171918F014AE050E08DED95E00E943B
:100650004E13F4E0003F1F0791F700EE14E0C12CA9
:10066000D12CE12CF12C69917991072E000C880B8B
:10067000990B0E94F5174B015C019601A7010E949E
:10068000A518181614F4640175010C171D0759F705
:1006900020E030E040E251E4B601C7010E944B1770
:1006A0002B013C0163E772E08DED95E00E946B1237
:1006B00022E030E0B301A2018DED95E00E943D14EF
:1006C00080910001882309F4E6C08091F104882319
:1006D00009F4E1C08091F00481112AC06DE772E055
:1006E0008DED95E00E947812C0E0D0E0BE018AE076
:1006F0000E94BC1564E170E080E090E00E941B1550
:100700002596CF3FD10591F781E08093F004DF91EA
:10071000CF911F910F91FF90EF90DF90CF90BF90FE
:10072000AF909F908F907F906F905F904F900895C3
:10073000C301B2010E94BD171F921F921F922FEF9B
:100740002F93A12CB12C650113E2E12EF12C00E0D6
:1007500010E027E130E040E050E00E944F148AE0D2
:100760000E94BC150F900F900F900F9020E030E08A
:1007700040EA50E4C301B2010E94A518181644F4DF
:1007800064E972E08DED95E00E946B1261E010C0AB
:1007900020E030E0A901C301B2010E94461787FFA3
:1007A0000AC06DE972E08DED95E00E946B1260E089
:1007B00083E00E94801680E10E949B15EC0109E015
:1007C00010E080E10E949B15C80FD91F015011094C
:1007D000C1F7CE0169E070E00E94B119072E000C4C
:1007E000880B990B0E94F5170E9494016B017C0104
:1007F00022E030E0AB01BC018DED95E00E943D149C
:10080000C701B6010E94BD171F921F921F922FEFC2
:100810002F93A12CB12C650112E3E12EF12C00E005
:1008200010E029E130E040E050E00E944F146B01FD
:100830007C014AE050E08DED95E00E944E13C60128
:100840000F900F900F900F908F3F910519F014F0BB
:100850008FEF90E0EC018034910514F4C0E4D0E017
:100860004AE050E0BE018DED95E00E944E13BE01BE
:1008700089E0DF91CF911F910F91FF90EF90DF9072
:10088000CF90BF90AF909F908F907F906F905F9030
:100890004F900C94BC1560E070E08AE00E94BC159B
:1008A00060E083E0DF91CF911F910F91FF90EF9077
:1008B000DF90CF90BF90AF909F908F907F906F9080
:1008C0005F904F900C948016CF92DF92EF92FF9240
:1008D0000F931F93CF93DF93CDB7DEB728970FB653
:1008E000F894DEBF0FBECDBF8DED95E00E9474126F
:1008F00067EA72E08DED95E00E9478128FEF94E048
:100900000E94A7070E94C4176B018FEF94E00E941A
:10091000B6070E94C4178B0163EC72E08DED95E081
:100920000E946B124AE050E0B6018DED95E00E9406
:10093000E71260ED72E08DED95E00E946B124AE0E7
:1009400050E0B8018DED95E00E94ED12CE010196C8
:100950007C0188E0F70111928A95E9F7C982DA8271
:100960000B831C838FE00E949B15BC01990F880BA1
:10097000990B0E94F5170E94940120E030E048ECAA
:1009800052E40E94FA180E94C4178B0180E10E9471
:100990009B15BC01990F880B990B0E94F5170E94BB
:1009A000940120E030E048EC52E40E94FA180E94E2
:1009B000C4170D831E836F8378876FED72E08DED12
:1009C00095E00E946B1287016E01F9E0CF0ED11CF9
:1009D000F80161918F0140E150E08DED95E00E94BA
:1009E000E0126EE272E08DED95E00E946B120C1544
:1009F0001D0571F78DED95E00E947412CC24C3940F
:100A000008E020E047E650E060E070E08EE095E02E
:100A10000E94DD0F28960FB6F894DEBF0FBECDBF43
:100A2000DF91CF911F910F91FF90EF90DF90CF90CA
:100A300008951F93CF93DF93EA016836710581050E
:100A4000910509F49AC098F4663371058105910502
:100A500009F4A4C0623671058105910509F492C0BC
:100A6000623371058105910509F0B3C0A4C0DC01B2
:100A7000CB01803A9105A105B105F9F038F48F3624
:100A80009105A105B10509F455C0A3C0813A9105AE
:100A9000A105B10551F1823A9105A105B10509F011
:100AA00098C067E073E08DED95E00E946B12EAEE6E
:100AB000F4E09E012A5F3F4F30C06BEE72E08DED97
:100AC00095E00E946B12EAEDF4E09E01285F3F4F33
:100AD000898190E0982F88274881842B8193919376
:100AE00022962C173D07A1F774C069EF72E08DEDD7
:100AF00095E00E946B12E2EEF4E09E01285F3F4F0A
:100B0000898190E0982F88274881842B8193919345
:100B10002296C217D307A1F75CC0898190E0982F75
:100B200088274881842B819391932296C217D307FB
:100B3000A1F74FC00E94EA146093F3047093F40489
:100B40008093F5049093F60481E08093F204188179
:100B5000113049F465E173E08DED95E00E946B1270
:100B60001093000101C018826FE173E08DED95E0F4
:100B7000DF91CF911F910C947812DF91CF911F914B
:100B80000C941702F89498E088E10FB6F894A895B1
:100B9000809360000FBE90936000FFCF8881823009
:100BA00029F481E08093F10460E003C01092F10425
:100BB00061E084E009C08A819B81853F914010F00B
:100BC00061E001C060E085E0DF91CF911F910C945E
:100BD0008016DF91CF911F9108950F931F93CF93AC
:100BE000DF93CDB7DEB729970FB6F894DEBF0FBEFF
:100BF000CDBF19868EE095E00E946910833099F48C
:100C0000AE014F5F5F4FBE01675F7F4F8EE095E0A3
:100C10000E9448108EE095E00E947110AE014F5F77
:100C20005F4F0E9419050E94EA140091F704109189
:100C3000F8042091F9043091FA040053184F2F4F13
:100C40003F4F061717072807390708F58091F10469
:100C50008823E9F087E00E94AF16892B51F462E304
:100C600073E08DED95E00E94781261E084E00E94CF
:100C7000801660E084E00E9480160E94EA1460936F
:100C8000F7047093F8048093F9049093FA040E9497
:100C9000EA140091FB041091FC042091FD043091B2
:100CA000FE040C501E4F2F4F3F4F06171707280703
:100CB0003907A0F468E373E08DED95E00E947812A7
:100CC0000E94EA146093FB047093FC048093FD047B
:100CD0009093FE040E9402030E94640429960FB6BA
:100CE000F894DEBF0FBECDBFDF91CF911F910F9162
:100CF000089566E08EE095E00E94490F60E48FEF72
:100D000094E00C945007DC01ED91FC910190F0818E
:100D1000E02D0994FF920F931F93CF93DF93EC0183
:100D2000F62E8A016A81888199810E947C088881D7
:100D30009981DC01ED91FC910190F081E02D6F2D06
:100D40000995612F70E0888199810E948306B8011E
:100D50007727888199810E94830688819981DF9114
:100D6000CF911F910F91FF900C940009FF920F9368
:100D70001F93CF93DF93EC01F62E8A016A8188815D
:100D800099810E947C0888819981DC01ED91FC9118
:100D90000190F081E02D6F2D0995888199810E9445
:100DA000000961E070E080E090E00E941B1542E0E5
:100DB0006A81888199810E94FD0888819981DC017E
:100DC000ED91FC910680F781E02D0995F82E888140
:100DD0009981DC01ED91FC910680F781E02D099568
:100DE00020E030E03F2D822B932BF801918380830C
:100DF000DF91CF911F910F91FF900895CF93DF93D3
:100E0000EC0180E090E1A0E0B0E08B839C83AD83B7
:100E1000BE838AE090E0A0E0B0E08F839887A98746
:100E2000BA8780E090E0A0E0B0E48B879C87AD8734
:100E3000BE8740E050E165E0CE010E948A064FE99E
:100E400059E360E0CE01DF91CF910C948A06CF93F5
:100E5000DF93EC0180E098E2A0E0B0E08B839C831C
:100E6000AD83BE8389E190E0A0E0B0E08F839887F6
:100E7000A987BA878DEC9CECACE4BFE38B879C8799
:100E8000AD87BE8740E058E265E0CE010E948A0649
:100E90004FE959E360E0CE01DF91CF910C948A06CF
:100EA000FC016283178210861186128613861486CF
:100EB000158616860895CF93DF93EC01888199817A
:100EC0000E947208CE01DF91CF910C94FE0628E1BA
:100ED00035E0FC01318320830C945B07CF93DF93D3
:100EE00000D0CDB7DEB7AE014F5F5F4F62E00E942A
:100EF000B60689819A8123E0969587952A95E1F730
:100F0000880F991F880F991F0F900F90DF91CF9135
:100F100008950F931F93CF93DF9300D0CDB7DEB723
:100F20008C01FC014381548165E00E948A06AE0178
:100F30004F5F5F4F64E0C8010E94B60689819A81C5
:100F40000F900F90DF91CF911F910F9108950E9404
:100F50006E07BC01990F880B990B0E94F5172FE6BD
:100F600032E143E85AE30E94FA180895CF92DF92E3
:100F7000EF92FF92CF93DF93EC010E948907BC01AF
:100F8000990F880B990B0E94F5176B017C016F81FB
:100F9000788589859A850E94F3179B01AC01C7016A
:100FA000B6010E944B17DF91CF91FF90EF90DF9039
:100FB000CF9008958091480590E020914905821BCB
:100FC000910908959091490580914805981750F42A
:100FD000E92FF0E0E65BFA4F208130E09F5F9093CD
:100FE000490502C02FEF3FEFC9010895E09149057F
:100FF00080914805E81730F4F0E0E65BFA4F808115
:1010000090E008958FEF9FEF08950895CF92DF92BB
:10101000EF92FF920F931F93CF93DF937C01CB014D
:101020008A0120912405222389F0EB016B01C40E73
:10103000D51ECC15DD0569F06991D701ED91FC91C4
:101040000190F081E02DC7010995F3CF642F0E9434
:10105000C309C801DF91CF911F910F91FF90EF90CD
:10106000DF90CF900895CF93DF931F92CDB7DEB777
:101070006983209124052223D1F020912505203277
:1010800040F021E030E0FC013383228380E090E0F7
:1010900015C080912605E82FF0E0E95DFA4F9981AF
:1010A00090838F5F809326058093250505C061E0BE
:1010B000CE0101960E94C30981E090E00F90DF917C
:1010C000CF910895FC011382128288EE93E0A0E094
:1010D000B0E084839583A683B78387E593E091830B
:1010E00080830895109249051092480510922605B4
:1010F000109225050C94070981E0809324056093E4
:101100004705109226051092250508950F93062F86
:1011100021E04091250567E275E0809147050E9436
:101120006D091092260510922505109224050F9145
:1011300008954F925F926F927F92AF92BF92CF923B
:10114000EF92FF920F931F93CF93DF935C01F62EE4
:10115000D42F28013901EE2021F10E947C08CE2DE8
:10116000C43008F0C3E0C150C0F028E0C29FC00105
:101170001124A301920104C05695479537952795F0
:101180008A95D2F7CA01B901D501ED91FC91019080
:10119000F081E02DC5010995E6CF60E0C5010E9410
:1011A00086084D2FD13208F040E22C2D6AE475E01C
:1011B0008F2D0E9425091092490580934805DF91E3
:1011C000CF911F910F91FF90EF90CF90BF90AF9074
:1011D0007F906F905F904F900895CF92EF920F9312
:1011E0001F93C22EE12C00E010E098010E949908A4
:1011F0001F910F91EF90CF90089521E00C94ED088E
:1012000061E00C94860888E195E00C9462081092E5
:10121000D70581E08093D5051092D40561E082E185
:101220000E94801661E083E10E948016E9EBF0E005
:1012300080818E7F808380818D7F808380E2809318
:10124000B80085E48093BC000895413208F043C0A3
:101250009091D7059111FCCF91E09093D705209301
:10126000D5052FEF20936A051092AF05240F209328
:10127000AE059093D6059091D605880F892B809363
:10128000D6058091D405813061F41092D405809107
:10129000D6058093BB008091BC0083FDF8CF85EC20
:1012A00001C085EE8093BC008091D7058130E1F3C9
:1012B0008091AF05841710F44091AF05A0EBB5E025
:1012C000962FFB018E2F891B841718F48D91819323
:1012D000F9CF842F089580E008950F93413208F0EC
:1012E0004AC09091D7059111FCCF32E03093D705D9
:1012F0000093D5053FEF30936A051092AF054093F8
:10130000AE05562FA0EBB5E0FB013E2F351B341781
:1013100018F431913D93F9CF1092D6053091D6054E
:10132000880F832B8093D6058091D405813061F49A
:101330001092D4058091D6058093BB008091BC00AB
:1013400083FDF8CF85EC01C085EE8093BC0022239D
:1013500021F08091D7058230D1F380916A058F3FCB
:1013600079F080916A05803241F080916A0580337E
:1013700031F094E005C091E003C092E001C093E039
:10138000892F0F910895613298F42091D705243068
:1013900089F460938C05282FAEE8B5E0FC018E2F10
:1013A000821B861718F481918D93F9CF80E0089500
:1013B00081E0089582E0089585ED8093BC008091DE
:1013C000BC0084FDFCCF1092D705089585EC809376
:1013D000BC001092D70508951F920F920FB60F927E
:1013E00011242F933F934F935F936F937F938F932A
:1013F0009F93AF93BF93EF93FF938091B900887F42
:10140000803609F49EC078F5883209F45DC090F406
:10141000803109F456C038F4882309F4F5C08830C7
:1014200009F44FC0F5C0883109F44EC0803209F488
:101430005FC0EEC0803409F46AC058F4803309F408
:1014400057C0883309F0E4C080936A050E94E6091A
:10145000DFC0803509F44FC0883509F45DC0883499
:1014600009F0D6C0D3C0883909F4C4C0A8F48837BD
:1014700009F467C038F4883609F463C0803709F48A
:1014800060C0C6C0883809F4B5C0803909F45FC0AF
:10149000803809F0BDC05BC0803B09F483C038F4DC
:1014A000803A09F466C0883A09F47CC0B1C0803C37
:1014B00009F4A4C0883C09F4A1C0883B09F487C0A2
:1014C000A7C08091D60510C09091AF058091AE0560
:1014D000981770F5E091AF0581E08E0F8093AF050E
:1014E000F0E0E055FA4F80818093BB0085EC83C02B
:1014F00080936A058BC0E091AF0581E08E0F8093E9
:10150000AF058091BB00F0E0E055FA4F80839091E9
:10151000AF058091AE056BC0E091AF0581E08E0F05
:101520008093AF058091BB00F0E0E055FA4F8083D7
:101530008091D50581116AC081E08093D40584EA49
:101540005EC083E08093D70510926B05CFCF80916A
:101550006B05803208F04EC0E0916B0581E08E0F84
:1015600080936B058091BB00F0E0E459FA4F8083D3
:10157000BDCF0E94E60980916B05803230F4E09186
:101580006B05F0E0E459FA4F108260916B0570E052
:10159000E091D005F091D1058CE695E00995109287
:1015A0006B0536C084E08093D70510928D051092AC
:1015B0008C05E091D205F091D305099580918C05B9
:1015C000811105C081E080938C0510928E05E09119
:1015D0008D0581E08E0F80938D05F0E0E257FA4F84
:1015E00080818093BB0090918D0580918C05981728
:1015F00008F47CCF85E88093BC000AC085EC80931A
:10160000BC001092D70504C010926A050E94DC0944
:10161000FF91EF91BF91AF919F918F917F916F91CA
:101620005F914F913F912F910F900FBE0F901F90A0
:101630001895CF93CFB7F8948091DB05811127C01F
:10164000E2E4F1E08491EBE2F1E09491E82FF0E044
:10165000EE0FFF1FED59FE4FA591B491EC91E923D8
:1016600021F461E08AE00E94801661E08AE00E9435
:1016700044168CB580618CBD8CB580648CBD61E0F6
:101680008DE00E94441661E08BE00E944416809138
:10169000DB058F5F8093DB05CFBFCF91089520914D
:1016A000DA05222399F04FB7F8942091DA0521301A
:1016B00059F42DB32093D8053DB32091D905209539
:1016C00023232DBB4FBF02C04093D8058CBD9DBDC9
:1016D00008958EBD00000DB407FEFDCF8EB50895B0
:1016E0008091DA05882361F09FB7F8942091DA059C
:1016F0008091D805213019F48DBB9FBF08958FBF0D
:101700000895813431F0813531F0813331F080E05A
:10171000089582E8089584E8089581E80895813461
:1017200031F0813531F0813331F080E0089582E489
:10173000089584E4089580E40895CF93DF93EC0145
:1017400080E591E00E944F0B60E08E810E94801640
:1017500080EC0E94690B61E08E810E9480160E94DD
:10176000700B6AE070E080E090E0DF91CF910C9424
:101770001B151F93CF93DF93EC01162F80E591E0AB
:101780000E944F0B60E08E810E94801683E00E94D1
:10179000690B812F0E94690B80E00E94690B182F52
:1017A00061E08E810E9480160E94700B812FDF9174
:1017B000CF911F9108950F931F93CF93DF93EC0167
:1017C000062F142F80E591E00E944F0B60E08E8180
:1017D0000E94801682E00E94690B802F0E94690B94
:1017E000812F0E94690B61E08E810E948016DF913B
:1017F000CF911F910F910C94700BFF920F931F9339
:10180000CF93DF93EC01F62E042F122F80E591E0A9
:101810000E944F0B60E08E810E94801685E00E943E
:10182000690B8F2D0E94690B802F0E94690B812FFD
:101830000E94690B61E08E810E948016DF91CF913A
:101840001F910F91FF900C94700B1F93CF93DF9318
:10185000EC0180E591E00E944F0B60E08E810E94D8
:10186000801680EA0E94690B80E00E94690B182FA5
:1018700061E08E810E9480160E94700B812FDF91A3
:10188000CF911F9108950F931F93CF938C01C62F73
:10189000262F40EE6FE00E94FD0B6FE0C8010E9412
:1018A000B90B982F907E81E09C1301C080E0CF910E
:1018B0001F910F9108950F931F93CF93DF934130A2
:1018C00021F0423009F43FC071C0462F50E0FA01C8
:1018D0003197E231F10508F069C0EC5CFF4F0C94E0
:1018E000061AC7E8DFEF6EC0C7E0DAEB67C0C5E8ED
:1018F000D1EF64C0C7E0DEEB49E065C0C7E8DFEFC9
:1019000035C0C7E8DAEF32C0C7E8DFEF36C0C7E05E
:10191000DEEB33C0C7E0DDEA30C0C7E8DAEF2DC048
:10192000C6E8D0EF2AC0C7E8DAEF2EC0C5E8D1EF8D
:1019300041E449C0C6E8D0EF2EC0C4E0D0EA2BC0D5
:10194000C2E8D0ED28C0462F50E0FA013197E231CD
:10195000F10560F5EA5BFF4F0C94061AC7E0DFEB78
:101960002DC0C7E0DFEB02C0C4E0D4EA47E02BC0E3
:10197000C7E0DFEB02C0C6E0D4EB43E024C0C7E021
:10198000DFEB02C0C6E0D4EB41E01DC0C5E0D1EB07
:10199000FBCFC6E0D4EB40E016C0C5E0D1EBFBCFF7
:1019A000C2E0D0E9F8CFC0E0D0E8F5CF81E01AC0BE
:1019B000C7E8DFEF4FE307C0C7E8DFEF4FE003C042
:1019C000C7E0DFEB4FE18C016AE20E94DB0B4D2F99
:1019D00069E2C8010E94DB0B4C2F68E2C8010E943B
:1019E000DB0B80E0DF91CF911F910F9108950F9352
:1019F0001F93CF938C01C0E340E06C2FC8010E947D
:101A0000DB0B60E16C0F40E0C8010E94DB0B60E281
:101A10006C0F40E0C8010E94DB0BCF5FCE3361F753
:101A200040E060E6C8010E94DB0B40E060E7C801CF
:101A3000CF911F910F910C94DB0BFF920F931F938B
:101A4000CF93DF93EC01062FF42E0E949D0B60E8EC
:101A5000CE010E94430C182F882319F063E673E02F
:101A600036C06DE773E08DED95E00E946B124F2D4F
:101A7000602FCE010E945B0C882319F06BE973E0A4
:101A800026C06DEA73E08DED95E00E946B12CE01E9
:101A90000E94F70C43E06BE2CE010E94DB0B24E0D6
:101AA00044E660E6CE010E94FD0B20E040E660E7E0
:101AB000CE010E94FD0B60E0CE010E94430C182F66
:101AC000882319F062EC73E002C06DED73E08DEDD8
:101AD00095E00E946B12812FDF91CF911F910F91A2
:101AE000FF900895F9018130B1F443835283AB0133
:101AF00066277727942F9C71842F837028E0929F0C
:101B0000800D11248860818365E0569547956A951C
:101B1000E1F740830895CA0123E0969587952A95B9
:101B2000E1F780834295440F407E41831382128205
:101B300008952F923F924F925F926F927F928F9271
:101B40009F92AF92BF92CF92DF92EF92FF920F934C
:101B50001F93CF93DF9300D000D01F92CDB7DEB795
:101B60004C01562E5A01190138014C2CDD8260E0DF
:101B7000FC0186810E948016852D0E94690B8E01D2
:101B80000F5F1F4F6E01F5E0CF0ED11C80E00E9469
:101B9000690BF80181938F01EC15FD05B9F72A81D6
:101BA0003981822F90E065E0959587956A95E1F7F8
:101BB000F8E03F9F800D911D1124092E000CAA0B07
:101BC000BB0BF50180839183A283B383F101108263
:101BD00023FF3AC0F50180819181A281B38132E077
:101BE000880F991FAA1FBB1F3A95D1F72370820F48
:101BF000911DA11DB11D80839183A283B383808138
:101C00009181A281B381BA2FA92F982F88272B8188
:101C1000820F911DA11DB11D80839183A283B38387
:101C200080819181A281B381BA2FA92F982F882713
:101C30002C81820F911DA11DB11D80839183A283F0
:101C4000B38381E0F101808380E00E94690B982FCB
:101C50009F70F701908386FB882780F9F3018083CA
:101C6000C42CDD8010E0F7018081181750F4183083
:101C700041F080E00E94690BF60181936F011F5FC4
:101C8000F2CF61E0F40186810F900F900F900F90DA
:101C90000F90DF91CF911F910F91FF90EF90DF9008
:101CA000CF90BF90AF909F908F907F906F905F90FC
:101CB0004F903F902F900C9480161F93CF93DF93FB
:101CC000EC01162F80E591E00E944F0B60E08E81C1
:101CD0000E948016812F0E94810B0E94690B61E097
:101CE0008E810E948016DF91CF911F910C94700B12
:101CF0004F925F926F927F928F929F92AF92BF921C
:101D0000CF92DF92EF92FF920F931F93CF93DF93C7
:101D100000D000D0CDB7DEB74C01D62E29013A0154
:101D2000862F0E948F0B182FE11002C0F12C02C0E9
:101D300080E4F82E9E012F5F3F4FB301A201802F58
:101D40000E94720D80E591E00E944F0B60E0F4016B
:101D500086810E948016812F0E94690B8E010F5F81
:101D60001F4F3E01F5E06F0E711CF80181918F014C
:101D70000E94690B06151705C1F78C2D8F290E944B
:101D8000690B750110E01C1549F0183039F0F701A6
:101D900081917F010E94690B1F5FF5CF61E0F40123
:101DA00086810E9480160E94700B6D2DC4010E94D6
:101DB0005D0E0F900F900F900F90DF91CF911F91BC
:101DC0000F91FF90EF90DF90CF90BF90AF909F90DA
:101DD0008F907F906F905F904F900895EF92FF9259
:101DE0000F931F93CF938C017B010E94250C847568
:101DF000F7011082843591F1F801918543E050E0BC
:101E0000491B5109E4EBF4E090E0292F30E024175E
:101E1000350724F5933010F4C08101C0CFEFC823FB
:101E20003196C11119C0933028F4F901E654FB4FE3
:101E3000808101C080E58F5FF7018083933028F4B3
:101E4000F901E954FB4F408101C040E020E06CE221
:101E5000C8010E94FD0B03C09F5FD7CFC2E08C2F4B
:101E6000CF911F910F91FF90EF900895CF93DF9343
:101E7000EC01662359F0862F6E8361E00E944416C0
:101E800061E08E81DF91CF910C948016DF91CF912C
:101E90000895FC0111862CED35E0308727830C94E2
:101EA000360F0F931F93CF93DF93EC01162F042F60
:101EB0000E94190B402F612FCE010E941D0D91E051
:101EC000811101C090E0892FDF91CF911F910F9177
:101ED00008952F923F924F925F926F927F928F92CE
:101EE0009F92AF92BF92CF92DF92EF92FF920F93A9
:101EF0001F93CF93DF931F92CDB7DEB74C012A011A
:101F00003B01222E302EFA2CFC0141835283638345
:101F100074832083058300E010E0BE016F5F7F4F74
:101F2000C4010E94EE0E0F5F1F4F823041F4023356
:101F3000110561F18AE090E00E945715EECF02335F
:101F4000110521F15601CE2CE32C022DA3019201A3
:101F50006981C4010E94780EFF20B1F000E010E01A
:101F60000F5F1F4F69816150C4010E94B90B83FF4D
:101F700008C00233110561F08AE090E00E94571515
:101F8000EFCF0233110521F080E003C086E001C0ED
:101F900087E00F90DF91CF911F910F91FF90EF900D
:101FA000DF90CF90BF90AF909F908F907F906F9079
:101FB0005F904F903F902F900895AF92CF92DF9215
:101FC000EF92FF920F93AC2C6701E02E00E00E948D
:101FD000690F0F91FF90EF90DF90CF90AF90089531
:101FE0006F927F928F929F92AF92BF92CF92DF9229
:101FF000EF92FF920F931F93CF93DF93EC015A015F
:102000004901380160FF02C060E903C061FF15C0EB
:1020100064E9CE010E94990DF30180818D83F40162
:1020200080818883F50180819181A281B381898338
:102030009A83AB83BC8380E003C0F701108284E005
:10204000DF91CF911F910F91FF90EF90DF90CF9094
:10205000BF90AF909F908F907F906F9008950E9457
:10206000250C382F3B7A83FD02C020E001C024E01C
:1020700085FD02C090E001C098E0832F881F88276B
:10208000881F8295807F3370232B922B892B089594
:10209000CF92DF92EF92FF920F931F93CF93DF9334
:1020A000EC017B016A010E942F108E010B5F1F4F14
:1020B000AE014F5F5F4F9E01682FCE010E94F00F6F
:1020C000DF91CF911F910F91FF90EF90DF90CF9014
:1020D00008950E94250C837011F484E0089583E034
:1020E0000895FC0161817281838194810895FC01CE
:1020F000918D228D892F90E0805C9F4F821B9109EA
:102100008F7399270895FC01918D828D981731F076
:10211000828DE80FF11D858D90E008958FEF9FEF80
:102120000895FC01918D828D981761F0828DDF01F9
:10213000A80FB11D5D968C91928D9F5F9F73928FBA
:1021400090E008958FEF9FEF089585EF91E1892B3F
:1021500049F080E090E0892B29F00E94F51181116F
:102160000C9400000895FC01848DDF01A80FB11DBF
:10217000A35ABF4F2C91848D90E001968F739927BD
:10218000848FA689B7892C93A089B1898C918064AA
:102190008C93938D848D981306C00288F389E02D6B
:1021A00080818F7D80830895EF92FF920F931F931C
:1021B000CF93DF93EC0181E0888F9B8D8C8D9813FA
:1021C00005C0E889F989808185FD24C0F62E0B8D34
:1021D00010E00F5F1F4F0F731127E02E8C8DE81258
:1021E0000CC00FB607FCFACFE889F989808185FF1A
:1021F000F5CFCE010E94B310F1CF8B8DFE01E80F19
:10220000F11DE35AFF4FF0820B8FEA89FB89808131
:10221000806207C0EE89FF896083E889F98980813F
:102220008064808381E090E0DF91CF911F910F91D6
:10223000FF90EF900895CF93DF93EC01888D882372
:10224000C9F0EA89FB89808185FD05C0A889B98923
:102250008C9186FD0FC00FB607FCF5CF808185FFFE
:10226000F2CFA889B9898C9185FFEDCFCE010E946C
:10227000B310E7CFDF91CF910895CF92DF92EF9225
:10228000FF921F93CF93DF93EC016A017B01122F22
:1022900060E874E88EE190E0A70196010E94C519FC
:1022A000DA01C9010197A109B109B695A7959795DA
:1022B00087959C01E889F98982E08083211580E176
:1022C0003807A8F0E889F989108260E472E48FE0A9
:1022D00090E0A70196010E94C519DA01C901019792
:1022E000A109B109B695A795979587959C01EC85AD
:1022F000FD853083EE85FF852083188EEC89FD896E
:102300001083EA89FB89808180618083EA89FB8967
:10231000808188608083EA89FB89808180688083EE
:10232000EA89FB8980818F7D8083DF91CF911F9126
:10233000FF90EF90DF90CF9008951F920F920FB60D
:102340000F9211242F938F939F93EF93FF93E0911C
:10235000ED05F091EE058081E091F305F091F40533
:1023600082FD12C090818091F6058F5F8F7320915E
:10237000F705821751F0E091F605F0E0E352FA4FCD
:10238000958F8093F60501C08081FF91EF919F9119
:102390008F912F910F900FBE0F901F9018951F9245
:1023A0000F920FB60F9211242F933F934F935F9389
:1023B0006F937F938F939F93AF93BF93EF93FF930D
:1023C0008DED95E00E94B310FF91EF91BF91AF9119
:1023D0009F918F917F916F915F914F913F912F913D
:1023E0000F900FBE0F901F9018958DED95E00E94F5
:1023F000771021E0892B09F420E0822F0895EDED7C
:10240000F5E01382128288EE93E0A0E0B0E08483CE
:102410009583A683B78381EC94E09183808385ECD8
:1024200090E09587848784EC90E09787868780EC9E
:1024300090E0918B808B81EC90E0938B828B82EC8F
:1024400090E0958B848B86EC90E0978B868B118E39
:10245000128E138E148E0895CF92DF92EF92FF9218
:102460000F931F93CF93DF936C017A018B01C0E030
:10247000D0E0CE15DF0581F0D8016D918D01D60138
:10248000ED91FC910190F081E02DC6010995892B19
:1024900011F02196EECF7E01C701DF91CF911F9100
:1024A0000F91FF90EF90DF90CF9008956115710527
:1024B00079F0FB0101900020E9F73197AF01461B4D
:1024C000570BDC01ED91FC910280F381E02D099422
:1024D00080E090E008950C945612DC01ED91FC919F
:1024E0000190F081E02D099468E973E00C94561294
:1024F0000F931F93CF93DF93EC010E9456128C0130
:10250000CE010E947412800F911FDF91CF911F9115
:102510000F9108958F929F92AF92BF92EF92FF9288
:102520000F931F93CF93DF93CDB7DEB7A1970FB66D
:10253000F894DEBF0FBECDBF7C01FA01CB0119A21A
:10254000223008F42AE08E010F5D1F4F822E912C5D
:10255000A12CB12CBF01A50194010E94C519F9015C
:10256000CA01015011096A3014F4605D01C0695C50
:10257000D8016C93232B242B252B61F7B801C701BD
:102580000E945612A1960FB6F894DEBF0FBECDBFC3
:10259000DF91CF911F910F91FF90EF90BF90AF907F
:1025A0009F908F9008952115310541F4DC01ED9144
:1025B000FC910190F081E02D642F09940C948A1213
:1025C0009A01462F50E060E070E00C94D3129A011B
:1025D000AB0160E070E00C94D3120F931F93CF9384
:1025E000DF93EC010E94E7128C01CE010E9474126D
:1025F000800F911FDF91CF911F910F910895CF927E
:10260000DF92EF92FF920F931F93CF93DF932115E9
:10261000310581F4DC01ED91FC910190F081E02D18
:10262000642FDF91CF911F910F91FF90EF90DF907A
:10263000CF9009942A30310501F577FF1DC06A015A
:102640007B01EC016DE20E946D128C01442755273D
:10265000BA014C195D096E097F092AE0CE010E947A
:102660008A12800F911FDF91CF911F910F91FF90E0
:10267000EF90DF90CF9008952AE0DF91CF911F91E6
:102680000F91FF90EF90DF90CF900C948A129A01F7
:10269000AB01770F660B770B0C94FF120F931F9310
:1026A000CF93DF93EC010E9447138C01CE010E946F
:1026B0007412800F911FDF91CF911F910F91089598
:1026C0007F928F929F92AF92BF92CF92DF92EF92C2
:1026D000FF920F931F93CF93DF938C016A017B01CD
:1026E000722E9A01AB01C701B6010E9467198823B7
:1026F00019F06DEC74E027C046015701E894B7F873
:102700002FEF3FEF4FE75FE7C501B4010E94671964
:1027100081110DC02FEF3FEF4FE75FE7C501B40117
:102720000E94461718161CF461ED74E00CC02FEFE0
:102730003FEF4FE75FE4C701B6010E94A5181816E6
:1027400094F465ED74E0C801DF91CF911F910F9172
:10275000FF90EF90DF90CF90BF90AF909F908F90C1
:102760007F900C9456122FEF3FEF4FE75FECC701BD
:10277000B6010E94461787FDE4CF20E030E0A901B2
:10278000C701B6010E94461787FF0AC06DE2C80163
:102790000E946D12EC01F7FAF094F7F8F09402C081
:1027A000C0E0D0E0B12C60E070E080E09FE37B14FB
:1027B00041F020E030E040E251E40E944B17B39436
:1027C000F6CFA70196010E94DA166B017C010E94E8
:1027D000C4174B015C012AE0AB01BC01C8010E9497
:1027E0008A12C80FD91F7720B9F1C501B4010E9420
:1027F000F3179B01AC01C701B6010E94D9166B010A
:102800007C016EE2C8010E946D12C80FD91F20E042
:1028100030E040E251E4C701B6010E94FA184B01D2
:102820005C010E94C4176B017C014AE050E0C801C2
:102830000E94E712C80FD91FB60180E090E00E9405
:10284000F3179B01AC01C501B4010E94D9166B01BD
:102850007C017A947110DBCFCE01DF91CF911F9173
:102860000F91FF90EF90DF90CF90BF90AF909F902F
:102870008F907F9008950C9460130F931F93CF93C4
:10288000DF93EC010E9460138C01CE010E94741250
:10289000800F911FDF91CF911F910F9108954F925B
:1028A0005F926F927F92AF92BF92CF92DF92EF9240
:1028B000FF920F931F93CF93DF93CDB7DEB729011C
:1028C0003A019B01AC012419350946095709898948
:1028D0009A89AB89BC89BC01CD016A197B098C0935
:1028E0009D090E94A119A8019701241935094609DB
:1028F00057090E94E719CA01B9016A0D7B1D8C1D99
:102900009D1DDF91CF911F910F91FF90EF90DF9070
:10291000CF90BF90AF907F906F905F904F90089551
:1029200008950E9460150E9490140E94E400C5EA78
:10293000D0E10E94ED052097E1F30E94A510F9CFA8
:102940001F920F920FB60F9211242F933F938F93E4
:102950009F93AF93BF9380917B0690917C06A0914B
:102960007D06B0917E0630917A0626E0230F2D3742
:1029700020F40296A11DB11D05C029E8230F03967E
:10298000A11DB11D20937A0680937B0690937C064F
:10299000A0937D06B0937E0680917F06909180067D
:1029A000A0918106B09182060196A11DB11D809370
:1029B0007F0690938006A0938106B0938206BF9114
:1029C000AF919F918F913F912F910F900FBE0F90DC
:1029D0001F9018952FB7F89460917B0670917C0634
:1029E00080917D0690917E062FBF08953FB7F894A1
:1029F00080917F0690918006A0918106B091820619
:102A000026B5A89B05C02F3F19F00196A11DB11D49
:102A10003FBFBA2FA92F982F8827820F911DA11D84
:102A2000B11DBC01CD0143E0660F771F881F991FC0
:102A30004A95D1F708958F929F92AF92BF92CF920D
:102A4000DF92EF92FF926B017C010E94F6144B0122
:102A50005C01C114D104E104F10401F10E94D81613
:102A60000E94F614DC01CB0188199909AA09BB0957
:102A7000883E9340A105B10560F321E0C21AD10858
:102A8000E108F10888EE880E83E0981EA11CB11CB5
:102A9000C114D104E104F10419F7DBCFFF90EF90EA
:102AA000DF90CF90BF90AF909F908F90089583302C
:102AB000910528F0880F991F04970197F1F7089561
:102AC000789484B5826084BD84B5816084BD85B509
:102AD000826085BD85B5816085BDEEE6F0E08081D0
:102AE00081608083E1E8F0E01082808182608083F1
:102AF000808181608083E0E8F0E080818160808374
:102B0000E1EBF0E0808184608083E0EBF0E08081A5
:102B100081608083EAE7F0E0808184608083808147
:102B20008260808380818E7F8083808180688083C3
:102B30001092C1000895883028F08E3010F08E5029
:102B400001C08FEF2091010190E4299F9001112491
:102B50008770822B80937C0080917A0080648093C0
:102B60007A0080917A0086FDFCCF809178002091D8
:102B7000790090E0922B08951F93CF93DF93182F45
:102B8000EB0161E00E944416209711F460E004C05C
:102B9000CF3FD10539F461E0812FDF91CF911F91B3
:102BA0000C948016E12FF0E0E65FFE4FE491E430F4
:102BB000F9F048F4E230B9F0E330A1F584B5806271
:102BC00084BDC8BD34C0E830E9F0E93019F1E53022
:102BD00049F580918000806280938000D0938B00C3
:102BE000C0938A0024C084B5806884BDC7BD1FC05F
:102BF00080918000806880938000D0938900C0938A
:102C0000880015C08091B00080688093B000C093A8
:102C1000B3000DC08091B00080628093B000C0937B
:102C2000B40005C0C038D1050CF0B5CFAFCFDF91EF
:102C3000CF911F910895843081F028F4823099F06B
:102C40008330A1F008958830A9F08930B9F085303B
:102C5000D1F4809180008F7D03C0809180008F77B8
:102C600080938000089584B58F7702C084B58F7DEE
:102C700084BD08958091B0008F7703C08091B0002B
:102C80008F7D8093B0000895CF93DF9390E0FC0197
:102C9000EF5DFE4F2491FC01E85CFE4F8491882398
:102CA00061F190E0880F991FFC01ED59FE4FC5912D
:102CB000D491FC01E75AFE4FA591B491611109C06E
:102CC0009FB7F8948881209582238883EC912E23E6
:102CD0000BC0623061F49FB7F8948881322F309531
:102CE00083238883EC912E2B2C939FBF06C08FB734
:102CF000F894E8812E2B28838FBFDF91CF91089520
:102D00001F93CF93DF93282F30E0F901E65FFE4F4A
:102D10008491F901EF5DFE4FD491F901E85CFE4F1B
:102D2000C491CC23C1F0162F81110E941B16EC2FE9
:102D3000F0E0EE0FFF1FE75AFE4FA591B4919FB749
:102D4000F894111104C08C91D095D82302C0EC9155
:102D5000DE2BDC939FBFDF91CF911F910895CF931E
:102D6000DF93282F30E0F901E65FFE4F8491F901EF
:102D7000EF5DFE4FD491F901E85CFE4FC491CC2386
:102D800091F081110E941B16EC2FF0E0EE0FFF1F57
:102D9000E15BFE4FA591B491EC91ED2381E090E0D1
:102DA00021F480E002C080E090E0DF91CF910895AF
:102DB00008955058BB27AA270E94F1160C946B184F
:102DC0000E945D1838F00E94641820F039F49F3F8B
:102DD00019F426F40C945A180EF4E095E7FB0C94C1
:102DE0005418E92F0E947C1858F3BA17620773072A
:102DF0008407950720F079F4A6F50C949E180EF43C
:102E0000E0950B2EBA2FA02D0B01B90190010C01FA
:102E1000CA01A0011124FF27591B99F0593F50F412
:102E2000503E68F11A16F040A22F232F342F44276A
:102E3000585FF3CF469537952795A795F040539562
:102E4000C9F77EF41F16BA0B620B730B840BBAF032
:102E50009150A1F0FF0FBB1F661F771F881FC2F79D
:102E60000EC0BA0F621F731F841F48F487957795B1
:102E70006795B795F7959E3F08F0B0CF9395880F6B
:102E800008F09927EE0F9795879508950E943018BE
:102E900008F481E008950E945F170C946B180E945B
:102EA000641858F00E945D1840F029F45F3F29F043
:102EB0000C94541851110C949F180C945A180E9499
:102EC0007C1868F39923B1F3552391F3951B550BA7
:102ED000BB27AA2762177307840738F09F5F5F4FED
:102EE000220F331F441FAA1FA9F335D00E2E3AF02C
:102EF000E0E832D091505040E695001CCAF72BD044
:102F0000FE2F29D0660F771F881FBB1F2617370794
:102F10004807AB07B0E809F0BB0B802DBF01FF27C6
:102F200093585F4F3AF09E3F510578F00C94541837
:102F30000C949F185F3FE4F3983ED4F38695779501
:102F40006795B795F7959F5FC9F7880F911D96957F
:102F5000879597F90895E1E0660F771F881FBB1FDB
:102F6000621773078407BA0720F0621B730B840B88
:102F7000BA0BEE1F88F7E09508950E94C417689475
:102F8000B1110C949F1808950E94841888F09F57DF
:102F900098F0B92F9927B751B0F0E1F0660F771F7D
:102FA000881F991F1AF0BA95C9F714C0B13091F073
:102FB0000E949E18B1E008950C949E18672F782FF8
:102FC0008827B85F39F0B93FCCF386957795679538
:102FD000B395D9F73EF490958095709561957F4FA4
:102FE0008F4F9F4F0895E89409C097FB3EF490954A
:102FF0008095709561957F4F8F4F9F4F9923A9F0D2
:10300000F92F96E9BB279395F69587957795679560
:10301000B795F111F8CFFAF4BB0F11F460FF1BC0A4
:103020006F5F7F4F8F4F9F4F16C0882311F096E937
:1030300011C0772321F09EE8872F762F05C06623E5
:1030400071F096E8862F70E060E02AF09A95660F9E
:10305000771F881FDAF7880F9695879597F9089557
:10306000990F0008550FAA0BE0E8FEEF1616170699
:10307000E807F907C0F012161306E407F50798F001
:10308000621B730B840B950B39F40A2661F0232B1A
:10309000242B252B21F408950A2609F4A140A69596
:1030A0008FEF811D811D089597F99F6780E870E07B
:1030B00060E008959FEF80EC089500240A941616AE
:1030C000170618060906089500240A941216130616
:1030D000140605060895092E0394000C11F48823A4
:1030E00052F0BB0F40F4BF2B11F460FF04C06F5FC0
:1030F0007F4F8F4F9F4F089557FD9058440F551F96
:1031000059F05F3F71F04795880F97FB991F61F069
:103110009F3F79F087950895121613061406551FE0
:10312000F2CF4695F1DF08C0161617061806991F4C
:10313000F1CF86957105610508940895E894BB2741
:1031400066277727CB0197F908950E94301808F475
:103150008FEF089516F00C946C190C945A1868941B
:103160000C9454180E948418A8F39923C1F3AEF369
:10317000DF93CF931F930F93FF92C92FDD278823EF
:103180002AF02197660F771F881FDAF720E030E0DA
:1031900040E85FEB9FE3883920F0803E38F02196CD
:1031A0008F770E94DA16E0EBF0E004C00E94DA1696
:1031B000EDEDF0E00E947A198B01BE01EC01FB2ECF
:1031C0006F5771097595771F880B990B0E94F5173A
:1031D00028E132E741E35FE30E940D19AF2D98012A
:1031E000AE01FF900F911F91CF91DF910E94F116D8
:1031F0000C946B180E940D190C946B180E945D18AA
:1032000038F00E94641820F0952311F00C945418A3
:103210000C945A1811240C949F180E947C1870F377
:10322000959FC1F3950F50E0551F629FF001729F6B
:10323000BB27F00DB11D639FAA27F00DB11DAA1F7A
:10324000649F6627B00DA11D661F829F2227B00DC7
:10325000A11D621F739FB00DA11D621F839FA00D52
:10326000611D221F749F3327A00D611D231F849FA2
:10327000600D211D822F762F6A2F11249F575040F9
:103280009AF0F1F088234AF0EE0FFF1FBB1F661F74
:10329000771F881F91505040A9F79E3F510580F03D
:1032A0000C9454180C949F185F3FE4F3983ED4F3A9
:1032B000869577956795B795F795E7959F5FC1F7E1
:1032C000FE2B880F911D9695879597F908950E947A
:1032D0003018880B990B08959F3F31F0915020F4DE
:1032E000879577956795B795880F911D96958795E2
:1032F00097F90895DF93CF931F930F93FF92EF9267
:10330000DF927B018C01689406C0DA2EEF010E94E7
:103310000D19FE01E894A59125913591459155919E
:10332000A6F3EF010E94F116FE019701A801DA94BD
:1033300069F7DF90EF90FF900F911F91CF91DF9190
:103340000895DB018F939F930E940C1ABF91AF9158
:10335000A29F800D911DA39F900DB29F900D1124EF
:10336000089597FB072E16F4009407D077FD09D037
:103370000E94171A07FC05D03EF4909581959F4F47
:103380000895709561957F4F0895A1E21A2EAA1BAA
:10339000BB1BFD010DC0AA1FBB1FEE1FFF1FA21705
:1033A000B307E407F50720F0A21BB30BE40BF50B02
:1033B000661F771F881F991F1A9469F7609570958B
:1033C000809590959B01AC01BD01CF010895052E1C
:1033D00097FB1EF400940E94FE1957FD07D00E942F
:1033E000C51907FC03D04EF40C94FE195095409576
:1033F000309521953F4F4F4F5F4F089590958095A1
:10340000709561957F4F8F4F9F4F0895EE0FFF1F6F
:103410000590F491E02D09940E942B1AA59F900D20
:10342000B49F900DA49F800D911D11240895AA1B97
:10343000BB1B51E107C0AA1FBB1FA617B70710F09F
:10344000A61BB70B881F991F5A95A9F780959095D1
:10345000BC01CD010895A29FB001B39FC001A39FFD
:10346000700D811D1124911DB29F700D811D1124BD
:08347000911D0895F894FFCFAF
:103478000101736574757028290043414E20425537
:103488005320536869656C6420696E6974206661AD
:10349800696C00496E69742043414E20425553209F
:1034A800536869656C6420616761696E0043414EC9
:1034B8002042555320536869656C6420696E6974AD
:1034C800206F6B210063616C63756C617465546572
:1034D8006D7065726174757265430043616C6375E4
:1034E8006C6174696E672074656D7065726174755E
:1034F80072650061646352656164696E673A2000B1
:103508002C2074656D7065726174757265206465D0
:103518006720433A200074657374526F7574696E3E
:103528006528290054657374696E6720696E74652F
:10353800726E616C2066616E732E005465737469D7
:103548006E67207261646961746F722066616E7360
:103558002E0054657374696E6720636F6F6C696EB3
:10356800672070756D702E0054657374696E6720DE
:103578006272616B65206C696768742E00546573AC
:1035880074696E67204E5443732E004E54432031A5
:103598002054656D7020286465672043293A20000F
:1035A8004E544320322054656D702028646567208E
:1035B80043293A200054657374696E67204C45446A
:1035C800732E004C454431004C45443200757064FC
:1035D80061746546616E7346726F6D54656D707384
:1035E8002829006D617854656D703A200052616D2C
:1035F80070696E67207261646961746F72206661B8
:103608006E732E0050756D70206F6E2E0050756DA4
:1036180070206F66662E007265706F7274566F6CDC
:103628007461676543757272656E7454656D707305
:10363800282900766F6C746167655F6D563A2000C3
:103648002C2063757272656E745F6D413A2000625A
:103658007566546F53656E643A200049445F524D55
:10366800435F54454D5053310049445F524D435FC9
:1036780054454D5053320049445F524D435F5445C1
:103688004D50533300636F6F6C696E67456E004928
:10369800445F444153485F434F4F4C494E475F4551
:1036A8004E006661756C74007570646174696E674C
:1036B800206C6173746865617274626561745469C1
:1036C8006D65000000000033080608DA07E207F617
:1036D800070508456E7465722073657474696E67B2
:1036E800206D6F6465206661696C0D0A00456E7413
:1036F80065722073657474696E67206D6F646520E8
:1037080073756363657373200D0A007365742072A3
:103718006174652066616C6C21210D0A0073657403
:103728002072617465207375636365737321210D5D
:103738000A00456E746572204E6F726D616C204D83
:103748006F6465204661696C21210D0A00456E741D
:103758006572204E6F726D616C204D6F64652053E9
:1037680075636365737321210D0A00426567696E8D
:1037780020746F20736574204D61736B21210D0ACD
:1037880000456E7465722073657474696E67206D88
:103798006F64652066616C6C0D0A00456E74657215
:1037A800206E6F726D616C206D6F64652066616C50
:1037B8006C0D0A00736574204D61736B207375631B
:1037C8006365737321210D0A00426567696E207471
:1037D8006F207365742046696C74657221210D0A27
:1037E80000456E746572206E6F726D616C206D6F2E
:1037F80064652066616C6C0D0A5365742066696C9B
:10380800746572206661696C21210D0A0073657404
:103818002046696C746572207375636365737321E0
:10382800210D0A0004104004081030405000000028
:1038380000D4102C127710911083101B116E616E3A
:0A38480000696E66006F76660000EE
:00000001FF
