:100000000C94BA000C94E2000C94E2000C94E20010
:100010000C94E2000C94E2000C94E2000C94E200D8
:100020000C94E2000C94E2000C94E2000C94E200C8
:100030000C94E2000C94E2000C94E2000C94E200B8
:100040000C942F0F0C94E2000C948E120C94C0129E
:100050000C94E2000C94E2000C94E2000C94E20098
:100060000C948A080C94E200880B210B8C0B240B57
:10007000270B2A0B2E0B310B340B370B3A0B3D0B96
:10008000400B430B460B4A0B4D0B500B900B5E0B7A
:10009000610B860B640B860B680B6B0B6F0B860B6F
:1000A000860B720B760B790B7D0B800B860B830B0B
:1000B00008000000BE922449123EABAAAA2ABECD77
:1000C000CCCC4C3E00000080BEABAAAAAA3E0000E9
:1000D0000000BF000000803F0000000000084178E1
:1000E000D3BB4387D1133D190E3CC3BD4282AD2B18
:1000F0003E68EC8276BED98FE1A93E4C80EFFFBE10
:1001000001C4FF7F3F000000000000000009000361
:1001100002000004050800000000000000000000CC
:100120000001020408102040800102040810200190
:100130000204081020408040040404040404040461
:10014000020202020202030303030303020203008A
:1001500000000023002600290000000000250028E0
:10016000002B0000000000240027002A00003D05AD
:10017000A107F01211241FBECFEFD8E0DEBFCDBF24
:1001800014E0A0E0B1E0E2EBF1E302C005900D92D3
:10019000AE39B107D9F726E0AEE9B4E001C01D924F
:1001A000A134B207E1F710E0CAEBD0E004C0219718
:1001B000FE010E94B718C73BD107C9F70E948E15F0
:1001C0000C94D7180C94000084EA95E00E94661302
:1001D00062E071E084EA95E00E946A1361E08EE0DB
:1001E0000E94D31061E082E00E94D31061E089E0B8
:1001F0000E94D31061E08AE00E94D31061E083E0A6
:100200000E94D31061E085E00E94D31061E084E099
:100210000E94D31061E088E00E94D31026E040E005
:1002200052EC61E070E084EA95E00E942E120E9498
:10023000790F6093A2047093A3048093A404909315
:10024000A5048DEB94E00E94020641E060E18CEC95
:1002500094E00E94010E882399F06AE071E084EA3C
:1002600095E00E946A1363E271E084EA95E00E94DF
:100270006A1364E670E080E090E00E94AA0FE5CF88
:100280006DE371E084EA95E00C946A138F929F927B
:10029000AF92BF92CF92DF92EF92FF924B015C013F
:1002A00084EA95E00E94661365E571E084EA95E0D2
:1002B0000E946A13A501940160E070EC8FE794E45A
:1002C0000E949E159B01AC0160E070EC8FE794E406
:1002D0000E94101620E030E040E85FE30E949E1587
:1002E0009B01AC0160E070E48CE196E40E94101682
:1002F00020E030E44CE156E40E9410160E9477178B
:1003000020E030E443E555E40E9410162FE03FEC76
:100310004BE55BE30E949F159B01AC0160E070E040
:1003200080E89FE30E94101623E333E948E853E492
:100330000E949E156B017C016BE671E084EA95E0FA
:100340000E946A1363E871E084EA95E00E945D13FD
:100350002AE030E0B501A40184EA95E00E94381556
:1003600060E971E084EA95E00E945D1322E030E0EC
:10037000B701A60184EA95E00E943A15C701B601CB
:10038000FF90EF90DF90CF90BF90AF909F908F90B5
:10039000089584EA95E00E94661366EA71E084EAB3
:1003A00095E00E946A1368EE73E080E090E00E949E
:1003B000AA0F64EB71E084EA95E00E946A136FEF84
:1003C00070E089E00E944B1068EB7BE080E090E0F9
:1003D0000E94AA0F60E070E089E00E944B106BEC75
:1003E00071E084EA95E00E946A136FEF70E08AE0A2
:1003F0000E944B1068EB7BE080E090E00E94AA0F27
:1004000060E070E08AE00E944B1062EE71E084EAE6
:1004100095E00E946A136FEF70E083E00E944B103A
:1004200060EE73E984E090E00E94AA0F60E070E063
:1004300083E00E944B1068EF71E084EA95E00E942F
:100440006A1366E072E084EA95E00E945D138FE033
:100450000E942A10BC01990F880B990B0E94BA16B2
:100460000E944601AB01BC0122E030E084EA95E045
:100470000E943A156BE172E084EA95E00E945D13F8
:1004800080E10E942A10BC01990F880B990B0E94F1
:10049000BA160E944601AB01BC0122E030E084EABA
:1004A00095E00E943A1560E372E084EA95E00E94CC
:1004B0006A136EE372E084EA95E00E946A1361E0D9
:1004C0008EE00E940F1168EE73E080E090E00E94E1
:1004D000AA0F60E08EE00E940F1163E472E084EAEC
:1004E00095E00E946A1361E082E00E940F1168EEBD
:1004F00073E080E090E00E94AA0F60E082E00C943C
:100500000F114F925F926F927F92AF92BF92CF92F4
:10051000DF92EF92FF920F931F93CF93DF9384EAC2
:1005200095E00E94661368E472E084EA95E00E9418
:100530006A13C7EAD4E08E01F801619171918F01CD
:100540004AE050E084EA95E00E940F14F4E00D3B8D
:100550001F0791F7412C512C612C712C69917991D5
:10056000072E000C880B990B0E94BA167B018C0198
:100570009B01AC01B201C3010E940B1687FF02C0B0
:100580002701380184E0C13BD80741F720E030E083
:1005900040E251E4B201C3010E9410162B013C015C
:1005A0006EE572E084EA95E00E945D1322E030E09F
:1005B000B301A20184EA95E00E943A1580910001FE
:1005C000882309F479C0C301B2010E9482161F92E8
:1005D0001F921F922FEF2F93A12CB12C650113E2D4
:1005E000E12EF12C00E010E027E130E040E050E0A7
:1005F0000E944C158AE00E944B100F900F900F90B4
:100600000F9020E030E048EB51E4C301B2010E94BA
:100610006A17181644F468E672E084EA95E00E94CE
:100620005D1361E011C020E030E048EA51E4C3010D
:10063000B2010E940B1687FF0AC061E772E084EAEC
:1006400095E00E945D1360E083E00E940F1180E15D
:100650000E942A10BC01990F880B990B0E94BA16B0
:100660000E9446010E9482161F921F921F922FEF36
:100670002F93A12CB12C65011EE1E12EF12C00E09D
:1006800010E024E130E040E050E00E944C150F9073
:100690000F900F900F9089E0DF91CF911F910F91F4
:1006A000FF90EF90DF90CF90BF90AF907F906F90D2
:1006B0005F904F900C944B10DF91CF911F910F9151
:1006C000FF90EF90DF90CF90BF90AF907F906F90B2
:1006D0005F904F900895CF92DF92EF92FF920F9329
:1006E0001F93CF93DF93CDB7DEB728970FB6F8945B
:1006F000DEBF0FBECDBF84EA95E00E9466136BE7B4
:1007000072E084EA95E00E946A138DEB94E00E9407
:1007100042060E9489166B018DEB94E00E945106FF
:100720000E9489168B0167E972E084EA95E00E94D5
:100730005D134AE050E0B60184EA95E00E943A1465
:1007400064EA72E084EA95E00E945D134AE050E0BA
:10075000B80184EA95E00E944014CE0101967C0124
:1007600088E0F70111928A95E9F7C982DA820B8352
:100770001C838FE00E942A10BC01990F880B990BF3
:100780000E94BA160E94460120E030E048EC52E494
:100790000E94BF170E9489168B0180E10E942A10D7
:1007A000BC01990F880B990B0E94BA160E94460152
:1007B00020E030E048EC52E40E94BF170E94891606
:1007C0000D831E836F83788763EB72E084EA95E084
:1007D0000E945D1387016E01F9E0CF0ED11CF80174
:1007E00061918F0140E150E084EA95E00E9433146A
:1007F00069E172E084EA95E00E945D130C151D0525
:1008000071F784EA95E00E946613CC24C39408E053
:1008100020E047E650E060E070E08CEC94E00E945D
:10082000950E28960FB6F894DEBF0FBECDBFDF91B0
:10083000CF911F910F91FF90EF90DF90CF9008958F
:10084000CF93DF936F3671058105910509F477C069
:1008500080F4623671058105910509F47DC0683622
:1008600071058105910509F083C0DF91CF910C944A
:10087000C901EA01DC01CB01813A9105A105B1056D
:1008800011F1823A9105A105B105D9F1803A91059E
:10089000A105B10509F06CC06FEB72E084EA95E048
:1008A0000E945D132196E7EAF4E0DE0111978C9136
:1008B000288190E0922B81939193229684E0EF3AE5
:1008C000F80799F755C06DEC72E084EA95E00E9454
:1008D0005D1320E030E0FE01E20FF31FD901A955BE
:1008E000BB4F818190E0982F88274081842B1996F7
:1008F0009C938E9318972E5F3F4F2830310559F700
:1009000037C06BED72E084EA95E00E945D1320E051
:1009100030E0FE01E20FF31FD901A955BB4F8181E1
:1009200090E0982F88274081842B51969C938E933A
:1009300050972E5F3F4F2630310559F719C081E09F
:10094000FA0180838093000169EE72E084EA95E009
:10095000DF91CF910C946A13F89498E088E10FB678
:10096000F894A895809360000FBE90936000FFCF2D
:10097000DF91CF9108950F931F93CF93DF93CDB75E
:10098000DEB729970FB6F894DEBF0FBECDBF19862C
:100990008CEC94E00E94210F833099F4AE014F5FFC
:1009A0005F4FBE01675F7F4F8CEC94E00E94000FA9
:1009B0008CEC94E00E94290FAE014F5F5F4F0E94C4
:1009C00020040E94790F00919E0410919F042091B1
:1009D000A0043091A1040053184F2F4F3F4F06172A
:1009E000170728073907B8F487E00E943F110197DD
:1009F00041F481E08093A60461E084E00E940F113D
:100A00000AC00E94790F60939E0470939F048093A4
:100A1000A0049093A1040E94790F0091A204109168
:100A2000A3042091A4043091A5040C501E4F2F4F15
:100A30003F4F0617170728073907A0F46CEF72E03D
:100A400084EA95E00E946A130E94790F6093A204E1
:100A50007093A3048093A4049093A5040E94810240
:100A60000E946B0329960FB6F894DEBF0FBECDBF70
:100A7000DF91CF911F910F91089566E08CEC94E087
:100A80000E94F90D60E48DEB94E00C94EB05DC0121
:100A9000ED91FC910190F081E02D0994FF920F936C
:100AA0001F93CF93DF93EC01F62E8A016A81888130
:100AB00099810E941A0788819981DC01ED91FC914E
:100AC0000190F081E02D6F2D0995612F70E08881F4
:100AD00099810E944705B8017727888199810E94F2
:100AE000470588819981DF91CF911F910F91FF90E8
:100AF0000C949E07FF920F931F93CF93DF93EC010B
:100B0000F62E8A016A81888199810E941A0788815C
:100B10009981DC01ED91FC910190F081E02D6F2D28
:100B20000995888199810E949E0761E070E080E0CC
:100B300090E00E94AA0F42E06A81888199810E9418
:100B40009B0788819981DC01ED91FC910680F781FA
:100B5000E02D0995F82E88819981DC01ED91FC91B9
:100B60000680F781E02D099520E030E03F2D822BB3
:100B7000932BF80191838083DF91CF911F910F9187
:100B8000FF900895CF93DF93EC0180E090E1A0E027
:100B9000B0E08B839C83AD83BE838AE090E0A0E0CD
:100BA000B0E08F839887A987BA8780E090E0A0E0C3
:100BB000B0E48B879C87AD87BE8740E050E165E05D
:100BC000CE010E944E054FE959E360E0CE01DF916E
:100BD000CF910C944E05FC0162831782108611861A
:100BE000128613861486158616860895CF93DF9392
:100BF000EC01888199810E941007CE01DF91CF918D
:100C00000C94C20526ED34E0FC01318320830C9462
:100C1000F605CF93DF9300D0CDB7DEB7AE014F5FBF
:100C20005F4F62E00E947A0589819A8123E0969560
:100C300087952A95E1F7880F991F880F991F0F90C4
:100C40000F90DF91CF9108950F931F93CF93DF9370
:100C500000D0CDB7DEB78C01FC014381548165E043
:100C60000E944E05AE014F5F5F4F64E0C8010E94D5
:100C70007A0589819A810F900F90DF91CF911F9112
:100C80000F9108950E940906BC01990F880B990BDA
:100C90000E94BA162FE632E143E85AE30E94BF17DA
:100CA0000895CF92DF92EF92FF92CF93DF93EC0102
:100CB0000E942406BC01990F880B990B0E94BA165A
:100CC0006B017C016F81788589859A850E94B816B1
:100CD0009B01AC01C701B6010E941016DF91CF91B4
:100CE000FF90EF90DF90CF9008958091060590E0FF
:100CF00020910705821B9109089590910705809125
:100D00000605981750F4E92FF0E0E85FFA4F2081CC
:100D100030E09F5F9093070502C02FEF3FEFC901BE
:100D20000895E091070580910605E81730F4F0E09A
:100D3000E85FFA4F808190E008958FEF9FEF08956C
:100D40000895CF92DF92EF92FF920F931F93CF936C
:100D5000DF937C01262F972F8A018091E20488235C
:100D600091F0C62FD72F6E01C40ED51ECC15DD0510
:100D700071F06991D701ED91FC910190F081E02D26
:100D8000C7010995F3CF642F822F0E946108C80123
:100D9000DF91CF911F910F91FF90EF90DF90CF9057
:100DA0000895CF93DF931F92CDB7DEB7698320916B
:100DB000E2042223D1F02091E304203240F021E02C
:100DC00030E0FC013383228380E090E015C0809105
:100DD000E404E82FF0E0EB51FB4F998190838F5FA3
:100DE0008093E4048093E30405C061E0CE010196A2
:100DF0000E94610881E090E00F90DF91CF9108950B
:100E0000FC011382128288EE93E0A0E0B0E08483BC
:100E10009583A683B7838BE193E0918380830895C4
:100E200010920705109206051092E4041092E30454
:100E30000C94A50781E08093E2046093050510926D
:100E4000E4041092E30408950F93062F21E04091EB
:100E5000E30465EE74E0809105050E940B08109292
:100E6000E4041092E3041092E2040F9108954F926B
:100E70005F926F927F92AF92BF92CF92EF92FF926A
:100E80000F931F93CF93DF935C01F62ED42F28018D
:100E90003901EE2021F10E941A07CE2DC43008F04E
:100EA000C3E0C150C0F0D501ED91FC91B8E0CB9FFB
:100EB000C0011124A301920104C0569547953795AE
:100EC00027958A95D2F7CA01B9010190F081E02DEA
:100ED000C5010995E6CF60E0C5010E9424074D2FAA
:100EE000D13208F040E22C2D68E075E08F2D0E9491
:100EF000C3071092070580930605DF91CF911F91DC
:100F00000F91FF90EF90CF90BF90AF907F906F9038
:100F10005F904F900895CF92EF920F931F93C22E40
:100F2000E12C00E010E098010E9437071F910F911B
:100F3000EF90CF90089521E00C948B0761E00C9422
:100F4000240786ED94E00C9400071092950581E04B
:100F5000809393051092920561E082E10E940F1147
:100F600061E083E10E940F11E9EBF0E080818E7F68
:100F7000808380818D7F808380E28093B80085E4C8
:100F80008093BC000895413208F043C090919505CC
:100F90009111FCCF91E090939505209393052FEF4D
:100FA0002093280510926D05240F20936C059093D3
:100FB000940590919405880F892B809394058091D6
:100FC0009205813061F4109292058091940580938E
:100FD000BB008091BC0083FDF8CF85EC01C085EE9D
:100FE0008093BC00809195058130E1F380916D057F
:100FF000841710F440916D052EE635E0FB01D90110
:101000008A2F821B841718F48D918193F9CF842F36
:10101000089580E008950F93413208F04AC09091FE
:1010200095059111FCCF32E030939505009393051F
:101030003FEF3093280510926D0540936C05FB013E
:101040006EE675E0DB013A2F361B341718F4319148
:101050003D93F9CF1092940530919405880F832B1E
:101060008093940580919205813061F410929205ED
:10107000809194058093BB008091BC0083FDF8CFE4
:1010800085EC01C085EE8093BC00222321F0809185
:1010900095058230D1F3809128058F3F79F08091BA
:1010A0002805803241F080912805803331F094E0AA
:1010B00005C091E003C092E001C093E0892F0F9139
:1010C0000895613298F420919505243089F4609355
:1010D0004A05FC012CE435E0D9018A2F821B8617D2
:1010E00018F481918D93F9CF80E0089581E00895FF
:1010F00082E0089585ED8093BC008091BC0084FD62
:10110000FCCF10929505089585EC8093BC00109259
:10111000950508951F920F920FB60F9211242F93E9
:101120003F934F935F936F937F938F939F93AF936F
:10113000BF93EF93FF938091B900887F803609F4C5
:101140009EC078F5883209F45DC090F4803109F4CE
:1011500056C038F4882309F4F5C0883009F44FC02C
:10116000F5C0883109F44EC0803209F45FC0EEC08A
:10117000803409F46AC058F4803309F457C08833C6
:1011800009F0E4C0809328050E948408DFC0803500
:1011900009F44FC0883509F45DC0883409F0D6C021
:1011A000D3C0883909F4C4C0A8F4883709F467C0EB
:1011B00038F4883609F463C0803709F460C0C6C0CB
:1011C000883809F4B5C0803909F45FC0803809F067
:1011D000BDC05BC0803B09F483C038F4803A09F499
:1011E00066C0883A09F47CC0B1C0803C09F4A4C050
:1011F000883C09F4A1C0883B09F487C0A7C080914E
:10120000940510C090916D0580916C05981770F54C
:10121000E0916D0581E08E0F80936D05F0E0E2595D
:10122000FA4F80818093BB0085EC83C080932805B2
:101230008BC0E0916D0581E08E0F80936D058091EC
:10124000BB00F0E0E259FA4F808390916D058091E8
:101250006C056BC0E0916D0581E08E0F80936D058C
:101260008091BB00F0E0E259FA4F808380919305B2
:1012700081116AC081E08093920584EA5EC083E0B8
:101280008093950510922905CFCF80912905803252
:1012900008F04EC0E091290581E08E0F809329056A
:1012A0008091BB00F0E0E65DFA4F8083BDCF0E94E5
:1012B000840880912905803230F4E0912905F0E01E
:1012C000E65DFA4F10826091290570E0E0918E058D
:1012D000F0918F058AE295E009951092290536C0B4
:1012E00084E08093950510924B0510924A05E09199
:1012F0009005F0919105099580914A05811105C0ED
:1013000081E080934A0510924C05E0914B0581E005
:101310008E0F80934B05F0E0E45BFA4F8081809361
:10132000BB0090914B0580914A05981708F47CCF3B
:1013300085E88093BC000AC085EC8093BC001092C5
:10134000950504C0109228050E947A08FF91EF913C
:10135000BF91AF919F918F917F916F915F914F91CD
:101360003F912F910F900FBE0F901F901895CF9324
:10137000CFB7F89480919905811127C0E2E4F1E09C
:101380008491EBE2F1E09491E82FF0E0EE0FFF1F83
:10139000ED59FE4FA591B491EC91E92321F461E060
:1013A0008AE00E940F1161E08AE00E94D3108CB5A0
:1013B00080618CBD8CB580648CBD61E08DE00E9445
:1013C000D31061E08BE00E94D310809199058F5F6C
:1013D00080939905CFBFCF9108952091980522233E
:1013E00099F04FB7F89420919805213059F42DB316
:1013F000209396053DB320919705209523232DBB7F
:101400004FBF02C0409396058CBD9DBD08958EBD13
:1014100000000DB407FEFDCF8EB5089580919805AC
:10142000882361F09FB7F8942091980580919605E4
:10143000213019F48DBB9FBF08958FBF089581346B
:1014400031F0813531F0813331F080E0089582E868
:10145000089584E8089581E80895813431F0813554
:1014600031F0813331F080E0089582E4089584E41E
:10147000089580E40895CF93DF93EC0180E591E037
:101480000E94ED0960E08E810E940F1180EC0E94A5
:10149000070A61E08E810E940F110E940E0A6AE025
:1014A00070E080E090E0DF91CF910C94AA0F1F9341
:1014B000CF93DF93EC01162F80E591E00E94ED09B8
:1014C00060E08E810E940F1183E00E94070A812F45
:1014D0000E94070A80E00E94070A182F61E08E81AF
:1014E0000E940F110E940E0A812FDF91CF911F9150
:1014F0000895EF92FF921F93CF93DF931F92CDB782
:10150000DEB77C01162F80E591E049830E94ED094A
:1015100060E0F70186810E940F1182E00E94070AB5
:10152000812F0E94070A4981842F0E94070A61E0E7
:10153000F70186810E940F110F90DF91CF911F91CB
:10154000FF90EF900C940E0AEF92FF921F93CF93AF
:10155000DF9300D0CDB7DEB77C01162F80E591E098
:101560002A8349830E94ED0960E0F70186810E9489
:101570000F1185E00E94070A812F0E94070A498106
:10158000842F0E94070A2A81822F0E94070A61E0A5
:10159000F70186810E940F110F900F90DF91CF917C
:1015A0001F91FF90EF900C940E0A1F93CF93DF933F
:1015B000EC0180E591E00E94ED0960E08E810E94DF
:1015C0000F1180EA0E94070A80E00E94070A182F84
:1015D00061E08E810E940F110E940E0A812FDF911F
:1015E000CF911F9108950F931F93CF938C01C62F16
:1015F000262F40EE6FE00E94A40A6FE0C8010E940F
:10160000570A982F907E81E09C1301C080E0CF9113
:101610001F910F9108950F931F93CF93DF93413044
:1016200021F0423009F43FC071C0462F50E0FA016A
:101630003197E231F10508F069C0EC5CFF4F0C9482
:10164000B718C7E8DFEF6EC0C7E0DAEB67C0C5E8E0
:10165000D1EF64C0C7E0DEEB49E065C0C7E8DFEF6B
:1016600035C0C7E8DAEF32C0C7E8DFEF36C0C7E001
:10167000DEEB33C0C7E0DDEA30C0C7E8DAEF2DC0EB
:10168000C6E8D0EF2AC0C7E8DAEF2EC0C5E8D1EF30
:1016900041E449C0C6E8D0EF2EC0C4E0D0EA2BC078
:1016A000C2E8D0ED28C0462F50E0FA013197E23170
:1016B000F10560F5EA5BFF4F0C94B718C7E0DFEB6C
:1016C0002DC0C7E0DFEB02C0C4E0D4EA47E02BC086
:1016D000C7E0DFEB02C0C6E0D4EB43E024C0C7E0C4
:1016E000DFEB02C0C6E0D4EB41E01DC0C5E0D1EBAA
:1016F000FBCFC6E0D4EB40E016C0C5E0D1EBFBCF9A
:10170000C2E0D0E9F8CFC0E0D0E8F5CF81E01AC060
:10171000C7E8DFEF4FE307C0C7E8DFEF4FE003C0E4
:10172000C7E0DFEB4FE18C016AE20E94790A4D2F9E
:1017300069E2C8010E94790A4C2F68E2C8010E9440
:10174000790A80E0DF91CF911F910F9108950F9357
:101750001F93CF938C01C0E340E06C2FC8010E941F
:10176000790A60E16C0F40E0C8010E94790A60E2EA
:101770006C0F40E0C8010E94790ACF5FCE3361F759
:1017800040E060E6C8010E94790A40E060E7C801D5
:10179000CF911F910F910C94790AEF92FF920F93C2
:1017A0001F93CF93DF931F92CDB7DEB77C01062F37
:1017B00049830E943B0A60E8C7010E94F30A182F80
:1017C0004981882319F067E273E037C061E473E070
:1017D00084EA95E049830E945D134981602FC70127
:1017E0000E940B0B882319F06FE573E026C061E7B8
:1017F00073E084EA95E00E945D13C7010E94A70B85
:1018000043E06BE2C7010E94790A24E044E660E607
:10181000C7010E94A40A20E040E660E7C7010E94D9
:10182000A40A60E0C7010E94F30A182F882319F068
:1018300066E873E002C061EA73E084EA95E00E9422
:101840005D13812F0F90DF91CF911F910F91FF902A
:10185000EF900895F9018130B1F443835283AB01D5
:1018600066277727942F9C71842F837028E0929F9E
:10187000800D11248860818365E0569547956A95AF
:10188000E1F740830895CA0123E0969587952A954C
:10189000E1F780834295440F407E41831382128298
:1018A00008953F924F925F926F927F928F929F9294
:1018B000AF92BF92CF92DF92EF92FF920F931F935E
:1018C000CF93DF9300D000D0CDB7DEB74C01562EBA
:1018D0005A01390160E0FC0186810E940F11852DBB
:1018E0000E94070ACE0101962C0174E0372E380EB3
:1018F00080E00E94070AF20181932F013E12F8CF87
:101900002A813981822F90E065E0959587956A95C7
:10191000E1F7F8E03F9F800D911D1124092E000C86
:10192000AA0BBB0BF50180839183A283B383F301E0
:10193000108223FF3AC0F50180819181A281B38199
:1019400032E0880F991FAA1FBB1F3A95D1F7237069
:10195000820F911DA11DB11D80839183A283B3834A
:1019600080819181A281B381BA2FA92F982F8827D6
:101970002B81820F911DA11DB11D80839183A283B4
:10198000B38380819181A281B381BA2FA92F982F2F
:1019900088272C81820F911DA11DB11D8083918309
:1019A000A283B38381E0F301808380E00E94070A71
:1019B000982F9F70F701908386FB882780F9F801A4
:1019C0008083560110E0F7018081181750F4183019
:1019D00041F080E00E94070AF50181935F011F5FDB
:1019E000F2CF61E0F40186810F900F900F900F907D
:1019F000DF91CF911F910F91FF90EF90DF90CF90EB
:101A0000BF90AF909F908F907F906F905F904F901E
:101A10003F900C940F111F93CF93DF93EC01162F7F
:101A200080E591E00E94ED0960E08E810E940F1137
:101A3000812F0E941F0A0E94070A61E08E810E9486
:101A40000F11DF91CF911F910C940E0A8F929F92EC
:101A5000AF92BF92CF92DF92EF92FF920F931F93BC
:101A6000CF93DF93CDB7DEB728970FB6F894DEBFDC
:101A70000FBECDBF4C01D62EBA01A9018D2D4D83CD
:101A80005E836F8378870E942D0A182F4D815E81B7
:101A90006F817885E11002C0F12C02C090E4F92E2C
:101AA0009E012F5F3F4F802F0E942A0C80E591E01E
:101AB0000E94ED0960E0F40186810E940F11812FE0
:101AC0000E94070A8E010F5F1F4F84E0E82EE00E90
:101AD000F80181918F010E94070AE012F9CF8F2D42
:101AE0008C290E94070A750110E01C1549F0183076
:101AF00039F0F70181917F010E94070A1F5FF5CF3E
:101B000061E0F40186810E940F110E940E0A6D2D82
:101B1000C4010E940B0D28960FB6F894DEBF0FBECD
:101B2000CDBFDF91CF911F910F91FF90EF90DF908C
:101B3000CF90BF90AF909F908F900895EF92FF92BB
:101B40000F931F93CF938C017B010E94D50A84755C
:101B5000F7011082843591F1F801918523E030E09E
:101B6000291B310968E774E0FB019E2F961B492F62
:101B700050E04217530714F5933010F4C08101C0B0
:101B8000CFEFC8233196C111F0CF933028F4FA017A
:101B9000E258FB4F208101C020E52F5FF701208331
:101BA000933028F4FA01E558FB4F408101C040E032
:101BB00020E06CE2C8010E94A40A01C0C2E08C2FA0
:101BC000CF911F910F91FF90EF900895CF93DF93E6
:101BD000EC01662359F0862F6E8361E00E94D310DA
:101BE00061E08E81DF91CF910C940F11DF91CF9145
:101BF0000895FC0111862AE935E0308727830C948B
:101C0000E60DCF93DF9300D000D0CDB7DEB74C8385
:101C10006B8389839A830E94B7094C816B81898188
:101C20009A810E94CD0B91E0811101C090E0892F33
:101C30000F900F900F900F90DF91CF9108952F92FA
:101C40003F924F925F926F927F928F929F92AF924C
:101C5000BF92CF92DF92EF92FF920F931F93CF9399
:101C6000DF931F92CDB7DEB74C011A012B01122F63
:101C7000FA2CFC01418352836383748320830583A0
:101C8000612C712CBE016F5F7F4FC4010E949E0DBD
:101C9000FFEF6F1A7F0A823049F482E368167104FD
:101CA00069F18AE090E00E94E60FECCF92E36916BA
:101CB000710421F15601CE2CE02E012FA2019101D9
:101CC0006981C4010E94260DFF20B1F000E010E000
:101CD0000F5F1F4F69816150C4010E94570A83FF43
:101CE00008C00233110561F08AE090E00E94E60F1F
:101CF000EFCF0233110521F080E003C086E001C080
:101D000087E00F90DF91CF911F910F91FF90EF909F
:101D1000DF90CF90BF90AF909F908F907F906F900B
:101D20005F904F903F902F900895AF92CF92DF92A7
:101D3000EF92FF920F93AC2C6701E02E00E00E941F
:101D40001F0E0F91FF90EF90DF90CF90AF9008950E
:101D50006F927F928F929F92AF92BF92CF92DF92BB
:101D6000EF92FF920F931F93CF93DF93EC015A01F1
:101D70004901380160FF02C060E903C061FF15C07E
:101D800064E9CE010E94510CF30180818D83F4013E
:101D900080818883F50180819181A281B3818983CB
:101DA0009A83AB83BC8380E003C0F701108284E098
:101DB000DF91CF911F910F91FF90EF90DF90CF9027
:101DC000BF90AF909F908F907F906F9008950E94EA
:101DD000D50A982F9B7A83FD02C030E001C034E021
:101DE00085FD02C020E001C028E0892F881F8827D8
:101DF000881F8295807F9370932B922B892B089557
:101E0000CF92DF92EF92FF920F931F93CF93DF93C6
:101E1000EC017B016A010E94E70E8E010B5F1F4FF0
:101E2000AE014F5F5F4F9E01682FCE010E94A80E4A
:101E3000DF91CF911F910F91FF90EF90DF90CF90A6
:101E400008950E94D50A837011F484E0089583E018
:101E50000895FC01618172818381948108951F92AC
:101E60000F920FB60F9211242F933F938F939F934E
:101E7000AF93BF9380919C0590919D05A0919E0585
:101E8000B0919F0530919B0526E0230F2D3720F45C
:101E90000296A11DB11D05C029E8230F0396A11DBF
:101EA000B11D20939B0580939C0590939D05A09365
:101EB0009E05B0939F058091A0059091A105A091EA
:101EC000A205B091A3050196A11DB11D8093A005A7
:101ED0009093A105A093A205B093A305BF91AF91E4
:101EE0009F918F913F912F910F900FBE0F901F9058
:101EF00018952FB7F89460919C0570919D0580917D
:101F00009E0590919F052FBF08953FB7F89480914B
:101F1000A0059091A105A091A205B091A30526B5B9
:101F2000A89B05C02F3F19F00196A11DB11D3FBF11
:101F3000BA2FA92F982F8827820F911DA11DB11D9F
:101F4000BC01CD0143E0660F771F881F991F4A959A
:101F5000D1F708958F929F92AF92BF92CF92DF9266
:101F6000EF92FF926B017C010E94850F4B015C0197
:101F7000C114D104E104F10401F10E949D150E94F5
:101F8000850FDC01CB0188199909AA09BB09883E94
:101F90009340A105B10560F321E0C21AD108E10820
:101FA000F10888EE880E83E0981EA11CB11CC114B4
:101FB000D104E104F10419F7DBCFFF90EF90DF903B
:101FC000CF90BF90AF909F908F90089583309105F0
:101FD00028F0880F991F04970197F1F708957894D6
:101FE00084B5826084BD84B5816084BD85B582601E
:101FF00085BD85B5816085BDEEE6F0E080818160BC
:102000008083E1E8F0E010828081826080838081BB
:1020100081608083E0E8F0E0808181608083E1EB93
:10202000F0E0808184608083E0EBF0E0808181607B
:102030008083EAE7F0E08081846080838081826031
:10204000808380818E7F80838081806880831092EE
:10205000C1000895883028F08E3010F08E5001C0F5
:102060008FEF87702091010190E4299F9001112446
:10207000822B80937C0080917A00806480937A0028
:1020800080917A0086FDFCCF8091780020917900C4
:1020900090E0922B08951F93CF93DF93182FEB01BD
:1020A00061E00E94D310209711F460E004C0CF3F9C
:1020B000D10539F461E0812FDF91CF911F910C940C
:1020C0000F11E12FF0E0E65FFE4FE491E430F9F00C
:1020D00048F4E230B9F0E330A1F584B5806284BD04
:1020E000C8BD34C0E830E9F0E93019F1E53049F510
:1020F00080918000806280938000D0938B00C09399
:102100008A0024C084B5806884BDC7BD1FC080918B
:102110008000806880938000D0938900C0938800FD
:1021200015C08091B00080688093B000C093B30068
:102130000DC08091B00080628093B000C093B40065
:1021400005C0C038D1050CF0B5CFAFCFDF91CF912E
:102150001F910895843081F028F4823099F0833003
:10216000A1F008958830A9F08930B9F08530D1F414
:10217000809180008F7D03C0809180008F77809355
:102180008000089584B58F7702C084B58F7D84BDAB
:1021900008958091B0008F7703C08091B0008F7D4B
:1021A0008093B0000895CF93DF9390E0FC01EF5D42
:1021B000FE4F2491FC01E85CFE4F8491882361F17D
:1021C00090E0880F991FFC01ED59FE4FC591D49105
:1021D000FC01E75AFE4FA591B491611109C09FB768
:1021E000F8948881209582238883EC912E230BC05C
:1021F000623061F49FB7F8943881822F80958323F1
:102200008883EC912E2B2C939FBF06C08FB7F89438
:10221000E8812E2B28838FBFDF91CF9108951F93E4
:10222000CF93DF93282F30E0F901E65FFE4F8491D2
:10223000F901EF5DFE4FD491F901E85CFE4FC491C6
:10224000CC23C9F0162F81110E94AA10EC2FF0E0C8
:10225000EE0FFF1FE75AFE4FA591B4918FB7F89488
:10226000111105C09C91ED2FE095E92302C0EC917E
:10227000ED2BEC938FBFDF91CF911F910895CF93FA
:10228000DF93282F30E0F901E65FFE4F8491F901DA
:10229000EF5DFE4FD491F901E85CFE4FC491CC2371
:1022A00091F081110E94AA10EC2FF0E0EE0FFF1FB9
:1022B000E15BFE4FA591B491EC91ED2381E090E0BC
:1022C00021F480E002C080E090E0DF91CF9108959A
:1022D000FC01918D228D892F90E0805C9F4F821BA5
:1022E00091098F7399270895FC01918D828D98171C
:1022F00031F0828DE80FF11D858D90E008958FEF0C
:102300009FEF0895FC01918D828D981761F0828D69
:10231000DF01A80FB11D5D968C91928D9F5F9F7319
:10232000928F90E008958FEF9FEF089586EE92E1EF
:10233000892B49F080E090E0892B29F00E94E61279
:1023400081110C9400000895FC01848DDF01A80F19
:10235000B11DA35ABF4F2C91848D90E001968F73CD
:102360009927848FA689B7892C93A089B1898C91EC
:1023700080648C93938D848D981306C00288F389B2
:10238000E02D80818F7D80830895CF93DF93EC01D2
:10239000888D8823C9F0EA89FB89808185FD05C085
:1023A000A889B9898C9186FD0FC00FB607FCF5CFBF
:1023B000808185FFF2CFA889B9898C9185FFEDCF07
:1023C000CE010E94A411E7CFDF91CF910895EF9243
:1023D000FF920F931F93CF93DF93EC0181E0888FDF
:1023E0009B8D8C8D981305C0E889F989808185FDC6
:1023F00024C0F62E0B8D10E00F5F1F4F0F731127B7
:10240000E02E8C8DE8120CC00FB607FCFACFE889DD
:10241000F989808185FFF5CFCE010E94A411F1CF0B
:102420008B8DFE01E80FF11DE35AFF4FF0820B8FF9
:10243000EA89FB898081806207C0EE89FF89608319
:10244000E889F98980818064808381E090E0DF9170
:10245000CF911F910F91FF90EF900895CF92DF924F
:10246000EF92FF921F93CF93DF93EC016A017B0100
:10247000122F60E874E88EE190E0A70196010E94B7
:102480007618DA01C9010197A109B109B695A79596
:1024900097958795AC01E889F98982E08083411599
:1024A00080E15807A8F0E889F989108260E472E4B5
:1024B0008FE090E0A70196010E947618BA01A90169
:1024C000415051096109710976956795579547956E
:1024D000EC85FD855083EE85FF854083188EEC8961
:1024E000FD891083EA89FB89808180618083EA8984
:1024F000FB89808188608083EA89FB89808180688C
:102500008083EA89FB8980818F7D8083DF91CF91F1
:102510001F91FF90EF90DF90CF9008951F920F9240
:102520000FB60F9211242F938F939F93EF93FF93E6
:10253000E091B405F091B5058081E091BA05F09184
:10254000BB0582FD12C090818091BD058F5F8F73A6
:102550002091BE05821751F0E091BD05F0E0EC55E9
:10256000FA4F958F8093BD0501C08081FF91EF9157
:102570009F918F912F910F900FBE0F901F901895E4
:102580001F920F920FB60F9211242F933F934F93E8
:102590005F936F937F938F939F93AF93BF93EF93CB
:1025A000FF9384EA95E00E94A411FF91EF91BF91FF
:1025B000AF919F918F917F916F915F914F913F91DB
:1025C0002F910F900FBE0F901F90189584EA95E001
:1025D0000E94681121E0892B09F420E0822F0895E0
:1025E000E4EAF5E01382128288EE93E0A0E0B0E026
:1025F00084839583A683B78385E894E09183808361
:1026000085EC90E09587848784EC90E097878687B7
:1026100080EC90E0918B808B81EC90E0938B828BAF
:1026200082EC90E0958B848B86EC90E0978B868B88
:10263000118E128E138E148E0895CF92DF92EF9228
:10264000FF920F931F93CF93DF936C017A018B015D
:10265000C0E0D0E0CE15DF0589F0D8016D918D0185
:10266000D601ED91FC910190F081E02DC601099514
:10267000892B11F47E0102C02196ECCFC701DF91B6
:10268000CF911F910F91FF90EF90DF90CF90089521
:102690006115710579F0FB0101900020E9F7319790
:1026A000AF01461B570BDC01ED91FC910280F381D9
:1026B000E02D099480E090E008950C944813DC012B
:1026C000ED91FC910190F081E02D09946CE573E0AF
:1026D0000C9448130F931F93CF93DF93EC010E9448
:1026E00048138C01CE010E946613800F911FDF9169
:1026F000CF911F910F9108954F925F926F927F92A9
:10270000EF92FF920F931F93CF93DF93CDB7DEB776
:10271000A1970FB6F894DEBF0FBECDBF7C01FA01C2
:10272000CB0119A2223008F42AE08E010F5D1F4F61
:10273000422E512C612C712CBF01A30192010E94E9
:102740007618F901CA01015011096A3014F4605D6C
:1027500001C0695CD8016C93232B242B252B61F7D6
:10276000B801C7010E944813A1960FB6F894DEBFC6
:102770000FBECDBFDF91CF911F910F91FF90EF90D2
:102780007F906F905F904F900895CF92DF92EF927D
:10279000FF920F931F93CF93DF93EC016A017B01AC
:1027A0002115310579F4E881F9810190F081E02D5E
:1027B000642FDF91CF911F910F91FF90EF90DF90E9
:1027C000CF9009942A303105E9F477FF1AC06DE201
:1027D0000E945F138C0144275527BA014C195D09EB
:1027E0006E097F092AE0CE010E947C13800F911FA1
:1027F000DF91CF911F910F91FF90EF90DF90CF90DD
:1028000008952AE0B701A601CE01DF91CF911F9173
:102810000F91FF90EF90DF90CF900C947C130F936B
:102820001F93CF93DF93EC019A01AB01770F660BF7
:10283000770B0E94C5138C01CE010E946613800F96
:10284000911FDF91CF911F910F91089521153105AF
:1028500041F4DC01ED91FC910190F081E02D642FB9
:1028600009940C947C139A01462F50E060E070E0CC
:102870000C9426149A01AB0160E070E00C942614CD
:102880000F931F93CF93DF93EC019A01AB0160E0AC
:1028900070E00E9426148C01CE010E946613800F06
:1028A000911FDF91CF911F910F9108954F925F92E9
:1028B0006F927F928F929F92AF92BF92CF92DF9250
:1028C000EF92FF92CF93DF93EC016A017B01B22E6E
:1028D0009A01AB01C701B6010E942C18882319F098
:1028E00061E974E027C026013701E89477F82FEFFB
:1028F0003FEF4FE75FE7C301B2010E942C1881113F
:102900000DC02FEF3FEF4FE75FE7C301B2010E9419
:102910000B1618161CF465E974E00CC02FEF3FEF9E
:102920004FE75FE4C701B6010E946A1718169CF4CE
:1029300069E974E0CE01DF91CF91FF90EF90DF90D5
:10294000CF90BF90AF909F908F907F906F905F904F
:102950004F900C9448132FEF3FEF4FE75FECC70108
:10296000B6010E940B1687FDE3CF20E030E0A901FD
:10297000C701B6010E940B1687FF0AC06DE2CE01A7
:102980000E945F134C01F7FAF094F7F8F09402C03C
:10299000812C912CA12C60E070E080E09FE3AB14CF
:1029A00041F020E030E040E251E40E941016A39490
:1029B000F6CF9B01AC01C701B6010E949F152B0108
:1029C0003C010E9489166B017C010E94B8169B0194
:1029D000AC01C301B2010E949E152B013C012AE00B
:1029E000B701A601CE010E947C137C01E80CF91C02
:1029F000BB2031F06EE2CE010E945F13E80EF91E9B
:102A0000DB2CDD2029F120E030E040E251E4C3017D
:102A1000B2010E94BF172B013C010E9489164B0195
:102A2000A12CB12C2AE0B501A401CE010E947C1397
:102A3000E80EF91EC501B4010E94B8169B01AC0155
:102A4000C301B2010E949E152B013C01DA94D9CF3B
:102A5000C701DF91CF91FF90EF90DF90CF90BF90B3
:102A6000AF909F908F907F906F905F904F90089560
:102A70000C9456140F931F93CF93DF93EC010E9495
:102A800056148C01CE010E946613800F911FDF91B6
:102A9000CF911F910F9108954F925F926F927F9205
:102AA000AF92BF92CF92DF92EF92FF920F931F935C
:102AB000CF93DF93CDB7DEB729013A019B01AC017B
:102AC000241935094609570989899A89AB89BC892E
:102AD000BC01CD016A197B098C099D090E94661809
:102AE000A801970124193509460957090E94981829
:102AF000CA01B9016A0D7B1D8C1D9D1DDF91CF910F
:102B00001F910F91FF90EF90DF90CF90BF90AF900B
:102B10007F906F905F904F90089508950E94EF0FFF
:102B20000E948D150E94E400C6E9D1E10E94BB0419
:102B30002097E1F30E949611F9CF08955058BB27D2
:102B4000AA270E94B6150C9430170E94221738F05D
:102B50000E94291720F039F49F3F19F426F40C94B1
:102B60001F170EF4E095E7FB0C941917E92F0E944C
:102B7000411758F3BA17620773078407950720F0C7
:102B800079F4A6F50C9463170EF4E0950B2EBA2F8A
:102B9000A02D0B01B90190010C01CA01A001112463
:102BA000FF27591B99F0593F50F4503E68F11A160F
:102BB000F040A22F232F342F4427585FF3CF4695A0
:102BC00037952795A795F0405395C9F77EF41F16C2
:102BD000BA0B620B730B840BBAF09150A1F0FF0F8C
:102BE000BB1F661F771F881FC2F70EC0BA0F621F78
:102BF000731F841F48F4879577956795B795F79568
:102C00009E3F08F0B0CF9395880F08F09927EE0FFC
:102C10009795879508950E94F51608F481E0089528
:102C20000E9424160C9430170E94291758F00E9415
:102C3000221740F029F45F3F29F00C941917511125
:102C40000C9464170C941F170E94411768F3992382
:102C5000B1F3552391F3951B550BBB27AA27621798
:102C60007307840738F09F5F5F4F220F331F441FA5
:102C7000AA1FA9F335D00E2E3AF0E0E832D09150D9
:102C80005040E695001CCAF72BD0FE2F29D0660FC6
:102C9000771F881FBB1F261737074807AB07B0E809
:102CA00009F0BB0B802DBF01FF2793585F4F3AF00F
:102CB0009E3F510578F00C9419170C9464175F3FF0
:102CC000E4F3983ED4F3869577956795B795F79595
:102CD0009F5FC9F7880F911D9695879597F908957D
:102CE000E1E0660F771F881FBB1F62177307840719
:102CF000BA0720F0621B730B840BBA0BEE1F88F728
:102D0000E09508950E9489166894B1110C94641797
:102D100008950E94491788F09F5798F0B92F992776
:102D2000B751B0F0E1F0660F771F881F991F1AF0B6
:102D3000BA95C9F714C0B13091F00E946317B1E0A1
:102D400008950C946317672F782F8827B85F39F0A0
:102D5000B93FCCF3869577956795B395D9F73EF44F
:102D600090958095709561957F4F8F4F9F4F0895F7
:102D7000E89409C097FB3EF4909580957095619515
:102D80007F4F8F4F9F4F9923A9F0F92F96E9BB27CB
:102D90009395F695879577956795B795F111F8CF47
:102DA000FAF4BB0F11F460FF1BC06F5F7F4F8F4FB2
:102DB0009F4F16C0882311F096E911C0772321F0A8
:102DC0009EE8872F762F05C0662371F096E8862F40
:102DD00070E060E02AF09A95660F771F881FDAF797
:102DE000880F9695879597F90895990F0008550FC4
:102DF000AA0BE0E8FEEF16161706E807F907C0F081
:102E000012161306E407F50798F0621B730B840B88
:102E1000950B39F40A2661F0232B242B252B21F462
:102E200008950A2609F4A140A6958FEF811D811D02
:102E3000089597F99F6780E870E060E008959FEF3C
:102E400080EC089500240A94161617061806090641
:102E5000089500240A941216130614060506089510
:102E6000092E0394000C11F4882352F0BB0F40F498
:102E7000BF2B11F460FF04C06F5F7F4F8F4F9F4FD8
:102E8000089557FD9058440F551F59F05F3F71F05A
:102E90004795880F97FB991F61F09F3F79F08795C1
:102EA0000895121613061406551FF2CF4695F1DF4A
:102EB00008C0161617061806991FF1CF86957105DA
:102EC000610508940895E894BB2766277727CB010E
:102ED00097F908950E94F51608F48FEF089516F0FB
:102EE0000C9431180C941F1768940C9419170E94B5
:102EF0004917A8F39923C1F3AEF3DF93CF931F9340
:102F00000F93FF92C92FDD2788232AF02197660FA0
:102F1000771F881FDAF720E030E040E85FEB9FE39F
:102F2000883920F0803E38F021968F770E949F15D7
:102F3000E0EBF0E004C00E949F15EDEDF0E00E9490
:102F40003F188B01BE01EC01FB2E6F57710975957F
:102F5000771F880B990B0E94BA1628E132E741E3EC
:102F60005FE30E94D217AF2D9801AE01FF900F9141
:102F70001F91CF91DF910E94B6150C9430170E94DB
:102F8000D2170C9430170E94221738F00E9429178C
:102F900020F0952311F00C9419170C941F1711248D
:102FA0000C9464170E94411770F3959FC1F3950F1D
:102FB00050E0551F629FF001729FBB27F00DB11DBD
:102FC000639FAA27F00DB11DAA1F649F6627B00D4D
:102FD000A11D661F829F2227B00DA11D621F739F36
:102FE000B00DA11D621F839FA00D611D221F749F44
:102FF0003327A00D611D231F849F600D211D822F8B
:10300000762F6A2F11249F5750409AF0F1F08823B1
:103010004AF0EE0FFF1FBB1F661F771F881F9150DE
:103020005040A9F79E3F510580F00C9419170C945D
:1030300064175F3FE4F3983ED4F3869577956795E0
:10304000B795F795E7959F5FC1F7FE2B880F911D08
:103050009695879597F908950E94F516880B990B18
:1030600008959F3F31F0915020F4879577956795AB
:10307000B795880F911D9695879597F90895DF93D9
:10308000CF931F930F93FF92EF92DF927B018C01FE
:10309000689406C0DA2EEF010E94D217FE01E89470
:1030A000A5912591359145915591A6F3EF010E9487
:1030B000B615FE019701A801DA9469F7DF90EF9049
:1030C000FF900F911F91CF91DF910895DB018F93B6
:1030D0009F930E94BD18BF91AF91A29F800D911D3B
:1030E000A39F900DB29F900D11240895A1E21A2E76
:1030F000AA1BBB1BFD010DC0AA1FBB1FEE1FFF1F9C
:10310000A217B307E407F50720F0A21BB30BE40BEB
:10311000F50B661F771F881F991F1A9469F7609532
:103120007095809590959B01AC01BD01CF010895EC
:10313000052E97FB1EF400940E94AF1857FD07D090
:103140000E94761807FC03D04EF40C94AF185095EB
:103150004095309521953F4F4F4F5F4F0895909583
:103160008095709561957F4F8F4F9F4F0895EE0F1B
:10317000FF1F0590F491E02D09940E94C818A59FA7
:10318000900DB49F900DA49F800D911D1124089562
:10319000A29FB001B39FC001A39F700D811D112498
:1031A000911DB29F700D811D1124911D0895F894F9
:0231B000FFCF4F
:1031B2000101736574757028290043414E20425500
:1031C2005320536869656C6420696E697420666176
:1031D200696C00496E69742043414E204255532068
:1031E200536869656C6420616761696E0043414E92
:1031F2002042555320536869656C6420696E697476
:10320200206F6B210063616C63756C61746554653A
:103212006D7065726174757265430043616C6375AC
:103222006C6174696E672074656D70657261747526
:1032320072650061646352656164696E673A200079
:103242002C2074656D706572617475726520646599
:103252006720433A200074657374526F7574696E07
:103262006528290054657374696E6720696E7465F8
:10327200726E616C2066616E732E005465737469A0
:103282006E67207261646961746F722066616E7329
:103292002E0054657374696E6720636F6F6C696E7C
:1032A200672070756D702E0054657374696E6720A7
:1032B2004E5443732E004E544320312054656D709A
:1032C20020286465672043293A20004E5443203267
:1032D2002054656D7020286465672043293A2000D8
:1032E20054657374696E67204C4544732E004C45D7
:1032F2004431004C45443200757064617465466126
:103302006E7346726F6D54656D70732829006D611E
:103312007854656D703A200050756D70206F6E2E76
:103322000050756D70206F66662E007265706F7248
:1033320074566F6C7461676543757272656E74540E
:10334200656D7073282900766F6C746167655F6DB7
:10335200563A20002C2063757272656E745F6D415F
:103362003A2000627566546F53656E643A200049D4
:10337200445F524D435F54454D5053310049445FC1
:10338200524D435F54454D5053320049445F524DB4
:10339200435F54454D5053330049445F44415348C1
:1033A2005F434F4F4C494E475F454E007570646115
:1033B20074696E67206C61737468656172746265AA
:1033C200617454696D650000000000D106A10675A4
:1033D200067D069106A006456E74657220736574BB
:1033E20074696E67206D6F6465206661696C0D0A91
:1033F20000456E7465722073657474696E67206D22
:103402006F64652073756363657373200D0A0073BF
:10341200657420726174652066616C6C21210D0AED
:1034220000736574207261746520737563636573DC
:103432007321210D0A00456E746572204E6F726D04
:10344200616C204D6F6465204661696C21210D0A13
:1034520000456E746572204E6F726D616C204D6F07
:103462006465205375636365737321210D0A0042FD
:103472006567696E20746F20736574204D61736B8C
:1034820021210D0A00456E7465722073657474699A
:103492006E67206D6F64652066616C6C0D0A004575
:1034A2006E746572206E6F726D616C206D6F6465F3
:1034B2002066616C6C0D0A00736574204D61736B3C
:1034C200207375636365737321210D0A004265677A
:1034D200696E20746F207365742046696C7465721E
:1034E20021210D0A00456E746572206E6F726D6146
:1034F2006C206D6F64652066616C6C0D0A53657497
:103502002066696C746572206661696C21210D0AFE
:10351200007365742046696C746572207375636309
:1035220065737321210D0A00041040040810304015
:103532005000000000E7111D13681182117411C5BB
:0E354200116E616E00696E66006F76660000A5
:107E000001C0ACC0112484B7882349F0982F9A7020
:107E1000923029F081FF02C097EF94BFD7D085E060
:107E20008093810082E08093C00088E18093C1004C
:107E300086E08093C20089E18093C4008EE0B1D0D7
:107E4000259A84E028E13EEF91E03093850020936D
:107E5000840096BBB09BFECF1D9AA8958150A9F7D0
:107E6000C0E0D0E092D0813471F48FD0182F9FD031
:107E7000123811F482E005C0113811F486E001C017
:107E800083E07CD068C0823411F484E103C085347F
:107E900019F485E094D05FC0853541F476D0C82FC1
:107EA00074D0D0E0D82BCC0FDD1F54C0863521F420
:107EB00084E085D080E0E5CF843679F566D065D062
:107EC000D82E63D0F82E00E011E05FD0F801819346
:107ED0008F01DE12FACF6BD0F5E4FF1201C0FFCFA5
:107EE00040E050E063E0CE0139D07E0100E011E0D7
:107EF000F8014081818150E0582B61E0C7012ED00C
:107F0000F2E0EF0EF11C0E5F1F4FD012F1CF40E0F8
:107F100050E065E0CE0122D01EC0843771F435D028
:107F200034D0F82E32D043D08E01F80185918F01E4
:107F300025D0FA94F110F9CF0EC0853739F437D037
:107F40008EE11CD085E91AD08FE09BCF813511F4EA
:107F500088E027D02CD080E111D084CFFC010A0129
:107F600067BFE895112407B600FCFDCF667029F0C5
:107F7000452B19F481E187BFE89508959091C000E1
:107F800095FFFCCF8093C60008958091C00087FFC5
:107F9000FCCF8091C00084FD01C0A8958091C600EF
:107FA0000895E0E6F0E098E1908380830895EDDFA6
:107FB000803219F088E0F5DFFFCF84E1DFCFCF9387
:107FC000C82FE3DFC150E9F7CF91F1CF282E80E031
:087FD000E8DFE0E0FF2709945F
:027FFE00020679
:0400000300007E007B
:00000001FF
